:020000040800F2
:1000000000000220110A00080D0A00089D4800089F
:100010000D0A00080D0A00080D0A00080000000083
:100020000000000000000000000000000D0A0008B1
:100030000D0A0008000000000D0A00082148000811
:100040000D0A00080D0A00080D0A00080D0A000834
:100050000D0A00080D0A00080D0A00080D0A000824
:100060000D0A00080D0A00080D0A000829440008BE
:100070003544000885330008414400084D44000819
:1000800025FC0008593900080D0A00080D0A00086F
:100090000D0A00080D0A00080D0A00080D0A0008E4
:1000A0000D0A00080D0A00080D0A00080D0A0008D4
:1000B000E5EF0008F1EF0008FDEF00088D390008BA
:1000C0000D0A0008993900080D0A000855E80008D3
:1000D00061E8000859FA000889FA0008BDFA00082A
:1000E0000D0A00080D0A0008000000000D0A0008B3
:1000F0000D0A00080D0A00080D0A00080D0A000884
:100100000D0A00080D0A000809F000086DE8000853
:10011000F1FA000825FB00080D0A00080D0A000886
:100120000D0A00080D0A000891E80008C5E800085B
:1001300059FC00080D0A00080D0A00080D0A000805
:1001400000000000000000000000000000000000AF
:100150000D0A00080D0A00080D0A000859FB0008E6
:10016000A53900080D0A0008314800085548000864
:100170000D0A0008794800080D0A00080D0A000859
:100180000D0A00080D0A00088DFB0008BDFB0008E1
:1001900079E8000885E800080D0A00080D0A000843
:1001A0000D0A00080D0A00080D0A00080D0A0008D3
:1001B000494100080D0A00080D0A00080D0A000850
:1001C0000D0A00080D0A0008A52E0008B12E00082F
:1001D0000D0A0008BD2E00080D0A00080D0A0008CF
:1001E0000D0A00080D0A00080D0A00080D0A000893
:1001F0000D0A00080D0A00080D0A00080D0A000883
:100200000D0A00080D0A00080D0A00080D0A000872
:100210000D0A00080D0A00080D0A00080D0A000862
:100220000D0A00080D0A00080D0A00080000000071
:100230000D0A00080D0A0008000000000D0A000861
:100240000D0A00080D0A00080D0A00080D0A000832
:100250000D0A00080D0A00080D0A00080D0A000822
:100260000D0A00080D0A00080D0A00080D0A000812
:100270000D0A00080D0A0008F1FB0008000000004C
:100280000D0A00080D0A00080D0A00080000000011
:08029000000000000D0A000847
:1002A00010B5054C237833B9044B13B10448AFF3B0
:1002B00000800123237010BD780700240000000097
:1002C0001C71010808B5034B1BB103490348AFF388
:1002D000008008BD000000007C0700241C7101089C
:1002E000034613F8012B002AFBD1181A0138704776
:1002F00001F0FF01102A2BDB10F0070F08D010F8D7
:10030000013B013A8B422DD010F0070F42B3F6D1DA
:10031000F0B441EA012141EA014122F007047FF0F3
:1003200000070023F0E80256083C85EA010586EA4A
:10033000010685FA47F5A3FA87F586FA47F6A5FA86
:1003400087F68EB9EED1F0BC01F0FF0102F0070292
:1003500032B110F8013B013A83EA010313B1F8D13D
:100360000020704701387047002D06BF354603381E
:10037000073815F0010F07D1013015F4807F02BF57
:10038000013015F4C03F0130F0BC0138704700BFA8
:1003900081F0004102E000BF83F0004330B54FEA36
:1003A00041044FEA430594EA050F08BF90EA020FA3
:1003B0001FBF54EA000C55EA020C7FEA645C7FEA36
:1003C000655C00F0E2804FEA5454D4EB5555B8BF59
:1003D0006D420CDD2C4480EA020281EA030382EACA
:1003E000000083EA010180EA020281EA0303362D5C
:1003F00088BF30BD11F0004F4FEA01314FF4801C2F
:100400004CEA113102D0404261EB410113F0004F40
:100410004FEA03334CEA133302D0524263EB4303F7
:1004200094EA050F00F0A780A4F10104D5F1200E95
:100430000DDB02FA0EFC22FA05F2801841F10001F0
:1004400003FA0EF2801843FA05F359410EE0A5F1C4
:1004500020050EF1200E012A03FA0EFC28BF4CF0F5
:10046000020C43FA05F3C01851EBE37101F00045AB
:1004700007D54FF0000EDCF1000C7EEB00006EEBB8
:100480000101B1F5801F1BD3B1F5001F0CD3490842
:100490005FEA30004FEA3C0C04F101044FEA445299
:1004A00012F5800F80F09A80BCF1004F08BF5FEA20
:1004B000500C50F1000041EB045141EA050130BD00
:1004C0005FEA4C0C404141EB0101013C28BFB1F512
:1004D000801FE9D291F0000F04BF01460020B1FA5D
:1004E00081F308BF2033A3F10B03B3F120020CDA30
:1004F0000C3208DD02F1140CC2F10C0201FA0CF00E
:1005000021FA02F10CE002F11402D8BFC2F1200C72
:1005100001FA02F120FA0CFCDCBF41EA0C01904028
:10052000E41AA2BF01EB0451294330BD6FEA040471
:100530001F3C1CDA0C340EDC04F11404C4F120025C
:1005400020FA04F001FA02F340EA030021FA04F36E
:1005500045EA030130BDC4F10C04C4F1200220FAC5
:1005600002F001FA04F340EA0300294630BD21FA03
:1005700004F0294630BD94F0000F83F4801306BFC9
:1005800081F480110134013D4EE77FEA645C18BFBD
:100590007FEA655C29D094EA050F08BF90EA020F54
:1005A00005D054EA000C04BF1946104630BD91EA4C
:1005B000030F1EBF0021002030BD5FEA545C05D14F
:1005C0004000494128BF41F0004130BD14F580048E
:1005D0003CBF01F5801130BD01F0004545F0FE4102
:1005E00041F470014FF0000030BD7FEA645C1ABF37
:1005F000194610467FEA655C1CBF0B46024650EA6E
:10060000013406BF52EA033591EA030F41F4002199
:1006100030BD00BF90F0000F04BF0021704730B51F
:100620004FF4806404F132044FF000054FF00001F4
:1006300050E700BF90F0000F04BF0021704730B5B5
:100640004FF4806404F1320410F0004548BF40428A
:100650004FF000013EE700BF42004FEAE2014FEADF
:1006600031014FEA02701FBF12F07F4393F07F4FBA
:1006700081F06051704732F07F4208BF704793F0BD
:100680007F4F04BF41F40021704730B54FF46074D0
:1006900001F0004521F000411CE700BF50EA0102D3
:1006A00008BF704730B54FF000050AE050EA01027C
:1006B00008BF704730B511F0004502D5404261EBEC
:1006C00041014FF4806404F132045FEA915C3FF42D
:1006D000D8AE4FF003025FEADC0C18BF03325FEACA
:1006E000DC0C18BF033202EBDC02C2F1200300FA7B
:1006F00003FC20FA02F001FA03FE40EA0E0021FAA0
:1007000002F11444BDE600BF53B94AB9002908BF3D
:1007100000281CBF4FF0FF314FF0FF3000F074B9DC
:10072000ADF1080C6DE904CE00F006F8DDF804E048
:10073000DDE9022304B070472DE9F047089D044627
:100740008E46002B4DD18A42944669D9B2FA82F284
:1007500052B101FA02F3C2F1200120FA01F10CFAC0
:1007600002FC41EA030E94404FEA1C48210CBEFBF8
:10077000F8F61FFA8CF708FB16E341EA034306FB81
:1007800007F199420AD91CEB030306F1FF3080F010
:100790001F81994240F21C81023E63445B1AA4B25D
:1007A000B3FBF8F008FB103344EA034400FB07F7FF
:1007B000A7420AD91CEB040400F1FF3380F00A8140
:1007C000A74240F207816444023840EA0640E41B35
:1007D00000261DB1D4400023C5E900433146BDE8E1
:1007E000F0878B4209D9002D00F0EF800026C5E983
:1007F000000130463146BDE8F087B3FA83F6002E9B
:100800004AD18B4202D3824200F2F980841A61EB12
:10081000030301209E46002DE0D0C5E9004EDDE730
:1008200002B9FFDEB2FA82F2002A40F09280A1EB18
:100830000C014FEA1C471FFA8CFE0126200CB1FB6D
:10084000F7F307FB131140EA01410EFB03F0884266
:1008500008D91CEB010103F1FF3802D2884200F2F3
:10086000CB804346091AA4B2B1FBF7F007FB101185
:1008700044EA01440EFB00FEA64508D91CEB040423
:1008800000F1FF3102D2A64500F2BB800846A4EB7E
:100890000E0440EA03409CE7C6F12007B34022FA69
:1008A00007FC4CEA030C20FA07F401FA06F31C4398
:1008B000F9404FEA1C4900FA06F3B1FBF9F8200CA5
:1008C0001FFA8CFE09FB181140EA014108FB0EF0EB
:1008D000884202FA06F20BD91CEB010108F1FF3A3B
:1008E00080F08880884240F28580A8F10208614447
:1008F000091AA4B2B1FBF9F009FB101144EA014155
:1009000000FB0EFE8E4508D91CEB010100F1FF34FF
:100910006CD28E456AD90238614440EA0840A0FB97
:100920000294A1EB0E01A142C846A64656D353D06D
:100930005DB1B3EB080261EB0E0101FA07F722FA91
:1009400006F3F1401F43C5E9007100263146BDE8BA
:10095000F087C2F12003D8400CFA02FC21FA03F31D
:10096000914001434FEA1C471FFA8CFEB3FBF7F09E
:1009700007FB10360B0C43EA064300FB0EF69E42C3
:1009800004FA02F408D91CEB030300F1FF382FD25C
:100990009E422DD9023863449B1B89B2B3FBF7F604
:1009A00007FB163341EA034106FB0EF38B4208D9DD
:1009B0001CEB010106F1FF3816D28B4214D9023E1E
:1009C0006144C91A46EA004638E72E46284605E73C
:1009D0000646E3E61846F8E64B45A9D2B9EB02080D
:1009E00064EB0C0E0138A3E74646EAE7204694E79D
:1009F0004046D1E7D0467BE7023B614432E73046D0
:100A000009E76444023842E7704700BFFEE700BFD1
:100A10000B480C4A904203D0121A0B4912F0C6FE42
:100A20000A480B4A904203D0121A002112F0CCFE61
:100A300004F05EF912F086FE00F06EF9FEE700BFEA
:100A40000000002478070024507101087807002472
:100A50000C6C0024704700BF704700BF704700BF98
:100A6000704700BF704700BF704700BF704700BFAE
:100A7000704700BF30B50B4D83B0152420460134BC
:100A800000F046FD0346E4B22846ADF804301035C8
:100A90009FED050A019902F02BF9192CEED103B054
:100AA00030BD00BFD008002400007A4410B52DED01
:100AB000028B84B0354802F0C5F8354803A98DEDA6
:100AC000030A00F03BFB334802F0BCF8F7EE008A63
:100AD000314800F0F1FB314802F0B4F83048B0EE94
:100AE000408A00F065FC30EE680AB4EEC80AF1EE08
:100AF00010FA35D400232B4C1846039303E0013041
:100B00000328039028DC04EB001002F00BF9039893
:100B100004EB00131A79002AF1D09B7A7F2BEED1D7
:100B20001E4802F08FF8B0EE408A1D4800F040FCED
:100B3000B7EEC00AB7EEC87A1B488DED000B53EC38
:100B4000172B02F00BF8124803A900F089FB039859
:100B5000013003280390D6DD04B0BDEC028B10BD3C
:100B60000F4800F025FC30EE280AB4EEC80AF1EE7A
:100B700010FABFDDB0EE480A054800F0DBFAB0EE2F
:100B8000480A074800F024FCB4E700BF9808002496
:100B900014080024EC090024B0090024780900247A
:100BA00014090024D00800248C650108002A7FD095
:100BB0002DE9F04F81460D46904600243D4EDFF86A
:100BC00014A13D4F2DED028B83B042E03B78002213
:100BD00003B13A70D9F80020002138484FEA840B5D
:100BE00002EB84020091013492ED000A8DED010ABE
:100BF00000F0A8FA3248B0EE408A8DED000A00F00D
:100C0000B1FB2F48F0EE408A8DED000A00F0CAFBE0
:100C1000F0EE400A2B48B0EE680A68EE200A11F0A8
:100C200045FF29488DED000A02F00CF8274B6A4673
:100C300001A9184683ED000A11F090FFA045D5E9FF
:100C40000021594402EB0B0381ED000A83ED000AF9
:100C500029D0FFF72BFF174802F064F831791C48C0
:100C600029B1B17AA1F17F01B1FA81F1490900F00E
:100C700039FC174800F09CFB104800F05BFA15485F
:100C800002F050F89AF80A30FF2B9FD13B78002BE6
:100C9000A0D1012309483B7000F048FA9AF80A30C5
:100CA000FF2B97D092E703B0BDEC028BBDE8F08F2D
:100CB000704700BFA4070024100900241408002472
:100CC000B0090024F807002460080024F00700247D
:100CD000140900249407002470B50B4C0B4D0C4EE6
:100CE00004F10C000B4A0021103512F06DFD0022BA
:100CF000012345F8044CC4E9012304F5BB2404F2A4
:100D00000C44B442ECD170BD000000C014080024B3
:100D1000307017C000DC05002DE980480021D7B0F5
:100D20009B48002500F0B2FC002001F025FF1C20AC
:100D300000F0EEFB03469FED970A4FF00108ADF877
:100D40000C3002270399032693480DF1240A01F081
:100D5000CFFF192000F0DCFB03469FED8E0A0DF556
:100D60008A7BADF810300DF138098C483DAC049900
:100D700001F0BEFFFFF77EFE0421854800F002FC73
:100D80000321834800F0DEFB4FF07C52844B854901
:100D90007F481A6083F8048000F0D0FB8DF814704F
:100DA00009A88DF81550059902F08EF88DF8196094
:100DB0008DF818500EA8069902F086F88DF81C8060
:100DC0008DF81D8013A8079902F07EF807238DF88F
:100DD000205018A88DF82130089902F075F80DF10F
:100DE0004C0E0DF1600CBAE80F00ABE80F00DAF81A
:100DF00000308BF80030B9E80F00CDF8313199F8A8
:100E00000030CDF82501CDF82911CDF82D218DF830
:100E10003531BEE80F00CDF842319EF80030CDF8F4
:100E20003601CDF83A11CDF83E218DF84631BCE8B7
:100E30000F00CDF853319CF80030CDF847018DF804
:100E4000573104235848CDF84B1145A9CDF84F210F
:100E50001A4602F047F82946534802F03DFA01903D
:100E60004B4800F08BFBDFED510A01992B462A46D7
:100E70001DA801F0A3FD4E4B0DF1740C9FED4D0A22
:100E8000D3ED000ABCE80F000FC49CE80F0084E813
:100E90000F002A4648483DA901F0A4FE41464248B9
:100EA00002F01AFA01903A4800F068FBDFED3F0AC1
:100EB00001992B462A4625A801F080FD0DF1940CDE
:100EC0000DF1F40EF7EE000ABFEE000ABCE80F00C9
:100ED000AEE80F009CE80F0084E80F002A46374870
:100EE0003DA901F07FFE39462F483DAF02F0F4F9ED
:100EF0000190274800F042FBDFED2C0A01992B46B8
:100F00002A462DA801F05AFD0DF1B40CDFED2C0A94
:100F1000B3EE0E0ABCE80F000FC79CE80F0084E890
:100F20000F002A4627483DA901F05CFE31461E48C5
:100F30003DAE02F0D1F90190154800F01FFBDFED46
:100F40001B0A01992B462A4635A801F037FD0DF101
:100F5000D40CF7EE000A9FED170ABCE80F000FC68D
:100F60009CE80F0084E80F002A463DA9164801F0CE
:100F700039FE9FED160A164811F05EFD0A4802F090
:100F800095F9FFF7A9FE062003F0FAFCFBE700BF86
:100F9000B407002400007A4494070024A407002426
:100FA000F0070024AD0B0008CC0700246F12033BB0
:100FB000040000240000000098080024EC0900242C
:100FC00000007043780900246008002400803B473B
:100FD000F807002470B5354D0020354900262A4613
:100FE000344C11F0C1FE344800F090F89FED330A04
:100FF000204600F03DF92A463149204611F0B4FE62
:101000002A4630493048314C11F0AEFE4FF4FA63B5
:101010002F4A30492360FA23626103226360082368
:101020002161E3604FF4FA732676E661A2602662DE
:10103000636203F0A3FC01232A46E662A4F8603051
:10104000A06225492548C4E9166611F08DFE2A469E
:101050002149234811F088FE2A462249304611F0E2
:1010600083FE2148214C2A462149066046610662DA
:1010700011F07AFE2A461F491F4811F075FE2A46D4
:1010800021461E4811F070FE2A4621461C4811F0E8
:101090006BFE2A4621461B4811F066FE2A46214671
:1010A0001948BDE8704011F05FBE00BF0000002489
:1010B000690A0008B00900241408002400803B4796
:1010C0006D0A0008550A0008F807002414090024D6
:1010D000000030400000E03F5D0A00089407002453
:1010E000A4070024710A0008B4070024610A00085C
:1010F000650A0008590A0008F0070024980800242F
:10110000EC09002478090024600800240022064924
:1011100010B4002482618262046082635DF8044B33
:1011200082644160704700BF0000A041002303605B
:10113000704700BF80ED010A704700BF0B688360F5
:10114000704700BF2DE9F0470022DFED3E2A03463D
:1011500000F1FF3E816807EE902A9FED3B3AB5EE25
:10116000006B9961B8EEE75BD0ED013AB6EE084B43
:101170009FED367A0132C3EE237A1EF8011F35EE59
:10118000066BA5EE446B27EE877AB7EEC77A27EE9B
:10119000067BB7EEC77B83ED057A39B9042A03F1E4
:1011A0001003D7D1B0EE620ABDE8F087D3ED047A20
:1011B000DFED276A37EE677A264DDC6893ED066A25
:1011C000E7EE267A6668244F06EB050CBDEEE77A5B
:1011D000C3ED047A17EE101AB8EEC77AA94277EE7B
:1011E000C77A28BF29461D4DA1603144C4ED007A5D
:1011F00004EB8606A5FB01A901F101084FEAD929F4
:1012000007FB191104EB810191ED037AA5FB08910D
:10121000A5FB0C95C90AED0A07FB118807FB15C54C
:1012200004EB8808D8ED036A76EEC76AA7EEA67AC3
:10123000F0EE407AE6EE077A72EE872AC6ED037A80
:101240006560ABE7000000000000704200803B4793
:1012500017B75139FF76010000770100F1197605C3
:101260000B68032B03D8C25C82F00102C2547047A2
:1012700038B504462DED028BB0EE408A04F11C0512
:1012800011F020FD2846B0EE480A11F0D1FC094BC0
:101290002046E36011F034FD00232846A36211F0DC
:1012A000E3FC4FF07E5300222046A363A286BDECF0
:1012B000028B38BD00247449B5EEC00A10B5F1EEBA
:1012C00010FA04462DED028BB0EE408A23D4F0EEE6
:1012D000007AF8EE000AB2EE040AE8EE270A11F0EE
:1012E0004FFFDFED1E7A04F11C0020EE270A84ED8B
:1012F0000A0A11F0B9FCF7EE0C6AF7EE007A4FF427
:10130000807388EE267AA386BDEC028B77EEC77ACF
:10131000C4ED0E7A10BD70EE000AB2EE040A11F0B0
:101320002FFF9FED0E7ADFED0E7A2046B1EE488A50
:10133000E0EE077AC4ED037A11F0E2FCF0EE0C6AFD
:10134000B7EE007A0123C8EE267AA386BDEC028BA5
:1013500077EE877AC4ED0E7A10BD00BF00409C4541
:101360000000C84200B590F8342083B08DED010A2A
:101370006AB190F835302BB901A911F0B1FC03B076
:101380005DF804FB9DED010A03B05DF804FB90F8E5
:101390003520002AF6D001A91C3011F055FC03B00D
:1013A0005DF804FB90ED0E0A704700BF00000000DE
:1013B00090ED097A9FED046BB8EE477B86EE070B44
:1013C000B7EEC00B704700BF00000000004CED40BE
:1013D0009FED047AC7EE007AFCEEE77AC0ED097A59
:1013E000704700BF00606A47C26D531C10B5012BE7
:1013F000C46AC365C162A1EB04012CD090F86040BF
:10140000022BD4BF002404F001042CBB836D80F8B0
:10141000614003F10C0CC468013340F82C10A34266
:10142000836501D100238365A242A8BF2246002A1A
:10143000964632DD00F12C03002203EB8E0C53F8AC
:10144000041F9C450A44FAD1B2FBFEF243689A425B
:1014500038BF1A46426210BD90F86130DBB907EE22
:10146000901A90ED047AF8EE676AD0ED097AF8EEFA
:10147000677A27EE877AF4EEC76AF1EE10FA0ADD92
:1014800090ED057A67EE877AF4EEE76AF1EE10FAEE
:1014900005D54908BAE70024B8E70022D6E71C467C
:1014A000B4E700BF38B5C26A044603680D4613446A
:1014B000994205D2436A816801FB032295420BD30E
:1014C0000021E268A5628A42C4E9161104DD920097
:1014D00004F1300012F078F929462046BDE8384082
:1014E000FFF782BF70B50E46044603F047FA054683
:1014F0000EB1237E33B1A16AE3696D1A2676C4E981
:10150000075370BD01462046FFF7CCFFF3E700BF4D
:10151000202882B009D8084B03EB400213F81030A2
:10152000507843EA002002B0704701230C2043EAC0
:10153000002002B0704700BFAC650108143001F014
:1015400009BA00BF38B500F1140504462DED028B31
:10155000284601F0BBF9284601F0B4F92846B0EE60
:10156000408A01F09DF9D0ED007AF8EE677A88EEB6
:10157000277ABDEC028B84ED0E7A38BD143001F071
:10158000A1B900BF38B500F1140504462DED028B5A
:10159000284601F089F9284601F094F92846B0EE72
:1015A000408A01F07DF9D0ED007AF8EE677A88EE96
:1015B000277ABDEC028B84ED0E7A38BDF0B503239B
:1015C00099B000270125129306462C4B09A81595C2
:1015D000CDE90E7340F20453ADF84030284BCDE90D
:1015E0001357099301F07AFF09A802F053F8002875
:1015F00036D1244B04AF04460090CDF8423010237E
:10160000394604958DF820301F4BCDE91650CDE9B1
:1016100006506846059302F0CBF90823009A01A909
:1016200009A8ADF804508DF806400994029503937B
:1016300000F0E4F800230EA938463024049302F0A9
:101640007FFF03224FF07E5309A906F114000B938C
:101650000C93CDE90942049A01F0EAF819B0F0BD03
:1016600040F60132074B169704AFADF824200998D5
:10167000CDF84230179500F081F8DBE7040204044E
:1016800003030001040604030704010B2DE9F043E2
:1016900004462DED028B83B0002948D0012140F291
:1016A000011200230091ADF804208DF80630304A75
:1016B0000126304B271D304904F12908626040F2B1
:1016C0000272A36040F60663E16004F125092682F8
:1016D000A4F8252084F82760A4F8293084F82B602A
:1016E00003F0BCFA6946054648B304F130008DF8B2
:1016F000066003F011FA072D34D104F114052046D9
:10170000FFF75CFF284601F0DDF82846B0EE408A7E
:1017100001F0C6F8D0ED007AF8EE677A88EE277A05
:1017200084ED0E7A03B0BDEC028BBDE8F08340F28D
:10173000011300918DF80610ADF80430B7E704F1FD
:10174000300003F0E9F93946204602F079FB4846BB
:1017500001F0C4FE404601F0C1FE04F1120000F0A9
:1017600077F9CAE73946204602F06AFBC5E700BFB1
:101770000508050905070506050A060610B584B023
:1017800003460124ADF8040003A8ADF80C30ADF811
:101790000E4001F0A3FE214603A801F089FF204678
:1017A00003F0EEF8002103A801F082FF204603F0C9
:1017B000E7F8214603A801F07BFF04B010BD00BF8D
:1017C00010B5C2F3002384B00C46017C8DF80D20C7
:1017D00043EA4402FA2402238DF80C2003AA009461
:1017E00002F07CF918B10124204604B010BD044673
:1017F0000A2003F0C5F8204604B010BD034670B5BA
:1018000043F8042B044684B007C983E80700A37992
:1018100083B91A210B461E22FA2523742046ADF8FF
:101820000C20022303AA009502F058F928B10120E8
:1018300004B070BD1B210B46EDE70A2003F0A0F8B1
:101840004FF4B85200950223ADF80C20204603AAAD
:10185000217C02F043F90028E9D10A2003F090F836
:1018600041F2027200950223ADF80C20204603AA33
:10187000217C02F033F90028D9D10A2003F080F846
:10188000042200950223ADF80C20204603AA217CF7
:1018900002F024F90028CAD10A2003F071F80622C8
:1018A00000950223ADF80C20204603AA217C02F00B
:1018B00015F90028BBD10A2003F062F841F2082292
:1018C00000950223ADF80C20204603AA217C02F0EB
:1018D00005F90028ABD10A20064603F051F800951F
:1018E000022303AA217C2046ADF80C6002F0F6F832
:1018F00000289CD1304603F043F8009522790C2350
:101900002046002A8DF80C3003AA4FF0020314BFC2
:10191000622142218DF80D10217C02F0DFF80028B1
:1019200085D1304603F02CF82279D4E902310B43FB
:10193000DBB20AB943F0400362790AB143F02003F5
:101940000E22FA258DF80D302046009502238DF8E1
:101950000C2003AA217C02F0C1F800287FF467AFB5
:101960000A2003F00DF8102200950223ADF80C2098
:10197000204603AA217C02F0B1F800287FF457AF7B
:101980000A2002F0FDFF122100950223ADF80C1091
:1019900003AA217C204602F0A1F800287FF447AF7B
:1019A0000A2002F0EDFF012209212046FFF708FF7F
:1019B000003818BF01203BE7F0B5102387B0234C57
:1019C000012200250126002702A920460195CDE924
:1019D00002234FF48052CDE904670AF0CFFB642064
:1019E00003F07AFF02A94FF480522046CDE9046744
:1019F00002261027CDE902670AF0C0FB032210235C
:101A000002A92046CDE9022300230422CDE90423C4
:101A10004FF480520AF0B2FB40F23223042202A9B2
:101A2000019310232046CDE90223019A0123059258
:101A30004FF4805204930AF0A1FB40F606012046C1
:101A40000AF0BCFB284607B0F0BD00BF2C0A0024FA
:101A50001C4B00221C494FF0400C30B5054689B0A4
:101A60000220596007219A601A620124DA620A2270
:101A70004FF4006EDC6006922022CDE900010420C4
:101A80000821CDE9020103201021CDE9040108203D
:101A90006946C3E904024FF4C072181DC3E906C2C7
:101AA0004FF48052C3E909E20AF03EFB38B92846F8
:101AB000FFF782FF003818BF012009B030BD204673
:101AC00009B030BD280A002440410052614A00217B
:101AD000D0B513688EB00A91002B40F0B9805E4BF0
:101AE00001214FF683700C2411600221D3F8D42019
:101AF0000026032742F48052C3F8D420D3F8D42020
:101B000002F480520092009AD3F8E02042F01002D2
:101B1000C3F8E020D3F8E02002F010020192019A0D
:101B2000D3F8E02042F04002C3F8E020D3F8E020F0
:101B300002F040020292029AD3F8E02042F008023A
:101B4000C3F8E020D3F8E02002F008020392039AE1
:101B5000D3F8E02042F48072C3F8E020D3F8E0200C
:101B600002F480720492049AD3F8E02042F08002DA
:101B7000C3F8E020D3F8E02002F080020592059A35
:101B8000D3F8E02042F02002C3F8E020D3F8E020B0
:101B900002F020020692069AD3F8E02042F00402F6
:101BA000C3F8E020D3F8E0300C9403F0040307936B
:101BB0000323079A0B93CDE9080108A9274805F0EC
:101BC00011FD48F23712022308A925480C94CDE9EB
:101BD0000823CDE90A6705F005FD4CF203720223E4
:101BE00008A920480C94CDE90823CDE90A6705F03F
:101BF000F9FC40F2FF62022308A91B480C94CDE9CE
:101C00000823CDE90A6705F0EDFC4FF60C720223BC
:101C100008A916480C94CDE90823CDE90A6705F018
:101C2000E1FC4FF63F02022308A911480C94CDE9CC
:101C30000823CDE90A6705F0D5FC2022022308A974
:101C40000A480C94CDE90A67CDE9082305F0CAFCDF
:101C50000EB0D0BD240A00240044025800100258DF
:101C600000180258000C025800200258001C0258AC
:101C7000001402582DE9F04FDFF8108406460D4697
:101C8000144608F118002DED028B89B000AF02F068
:101C90004FFDD8F8183073B3D8F81C30D8F804903A
:101CA000002B43690BBF4FF0080A4FF0100A4FF0AA
:101CB000020B4FF0040BB9F1000F2AD0A200EA4644
:101CC000012B02F1070222F00702ADEB020D68467C
:101CD000ADEB020D694600F03F81022B00F0D6808B
:101CE000002B6FD02246C847D5462437BD46BDECF1
:101CF000028BBDE8F08FD8F81C30002BF5D0D8F857
:101D000004904FF0080A4FF0020B4369B9F1000F3D
:101D1000D4D1FB61D8F80030BB61002BE5D0D548A9
:101D200002F078FD6B46BBF1020F786108EE103AC5
:101D3000FB6900F083816A465146A2EBC4029546D6
:101D40006200EA46B2FBFBF2AAEBC40085460AEB4E
:101D50008200EE46F861ADEB010DF8690EEB820CE6
:101D6000C7F810C0EC46ADEB010D00EB8201CCF8DA
:101D70000400CCF8081001EB82013869E946CCF880
:101D80000C1000EB8201CCF800A001EB8202C9E943
:101D900000E0C9E90212012B00F06483022B00F07D
:101DA0006C82002B00F08081620849466046BB6966
:101DB000984718EE103A24379D46BD46BDEC028B7D
:101DC000BDE8F08F002C8DD01A46D8ED0C6A9FED3F
:101DD000B27A8446331D36F922E00CF1080C07EE86
:101DE00090EA33F922E00232F8EEE77A944267EEA5
:101DF000877A67EEA67A4CED027A07EE90EAF8EE63
:101E0000E77A67EE877A67EEA67A4CED017AE2D838
:101E1000F9612246C847984ED8ED0D6A0020F9694D
:101E20002B1D9FED9E7A9FED9E6ADFED9E5A22E06C
:101E3000F4EEC67AF1EE10FAC0F2C88447F6FE72EC
:101E4000D1ED017A45F8202066EEA77AF4EEC77A44
:101E5000F1EE10FA40F2F080F4EEC67AF1EE10FAEC
:101E6000C0F2D58447F6FE7243F8202002300831D4
:101E700084427FF639AFD1ED007A66EEA77AF4EEB0
:101E8000C77AF1EE10FAD3D83246D9E7002C3FF4E6
:101E900029AFD8ED0C6A84469FED787A0022331D75
:101EA0008E4656F822100CF1080C07EE901A53F8E3
:101EB00022100232F8EEE77A944267EE877A67EEF4
:101EC000A67A4CED027A07EE901AF8EEE77A67EE02
:101ED000877A67EEA67A4CED017AE2D871462246FF
:101EE000C7F81CE0C847664ED8ED0D6A0020F969B6
:101EF0002B1D9FED6A7A9FED6A6ADFF894C120E09E
:101F0000F4EEC67AF1EE10FAC0F279843246D1EDE1
:101F1000017A45F8202066EEA77AF4EEC77AF1EE52
:101F200010FA40F28780F4EEC67AF1EE10FAC0F2B1
:101F30005E84324643F820200230083184427FF626
:101F4000D3AED1ED007A66EEA77AF4EEC77AF1EE61
:101F500010FAD5D86246DAE7002C3FF4C3AED8EDCC
:101F60000C6A86469FED477A4FF0000C331D56F8F9
:101F70002C200EF1080E82F40002A2F5000207EEFA
:101F8000902A53F82C200CF1020CF8EEE77A82F438
:101F900000026445A2F5000267EE877A67EEA67A32
:101FA0004EED027A07EE902AF8EEE77A67EE877A2E
:101FB00067EEA67A4EED017AD9D8F9612246C84774
:101FC000314ED8ED0D6A0020F9692B1D9FED337A53
:101FD0009FED336ADFF8BCC01FE0F4EEC67AF1EE85
:101FE00010FAC0F2FC833246D1ED017A45F8202088
:101FF00066EEA77AF4EEC77AF1EE10FA18D9F4EE8D
:10200000C67AF1EE10FAC0F2DA83324643F82020A5
:102010000230083184427FF667AED1ED007A66EE79
:10202000A77AF4EEC77AF1EE10FAD6D86246DBE76B
:102030006246EBE762467DE7324615E7A100D646E9
:102040006208073121F00701ADEB010DEA46ADEB67
:10205000010D6946ADEB0E0D0AEB8200EC46ADEBCF
:102060000E0D01EB8202F861E946CCE900A0C9E956
:10207000001290E67C0A00240280FFFF000000307E
:102080000082FF7F0000003482FF7F00600A00248E
:10209000007E00807E0080FF0000003804FF7FBFCC
:1020A00004FF7F3F00FEFF46002C00F0C982BBF119
:1020B000020FD8F8242000F0FA827969C7F804905A
:1020C00002EB810E5FED0C5A8A00DCF808100EF16D
:1020D00004007A611A46DCF80C303B61331DD7F8F6
:1020E00010903D61FD69C7E902CB8C46834636F905
:1020F0002210D8ED0C7A06EE101A33F9221006EEF3
:10210000901A3EF92210B8EEC66A07EE101AF8EEE1
:10211000E66A3BF92210B8EEC77A26EE256A66EE2B
:10212000A56A27EE257A26EE276A66EEA76A27EECD
:10213000277A07EE901A51080232F8EEE77A0AEB96
:102140008100944280ED006A05EB810067EEA57A7C
:10215000C0ED006A0CEB810009EB810180ED007A93
:1021600098ED0C7A67EE877AC1ED007ABFD8D7F880
:1021700004903D69D7E902CB60466208BB694946D5
:102180009847D8F82C307A69D8ED0D6A1A441FEDBB
:102190003D7A1FED3D6A2B1D904602F1040A5FED6A
:1021A0003F5A0022A84ED9E900EC51E0F4EEC67A7D
:1021B000F1EE10FAC0F2C78247F6FE7045F8220031
:1021C0000CEB0100D0ED007A66EEA77AF4EEC77A48
:1021D000F1EE10FA4BD9F4EEC67AF1EE10FAC0F235
:1021E000BA8247F6FE70BBF1020F43F822002BD0F3
:1021F000D9F808000844D0ED007A66EEA77AF4EE2C
:10220000C77AF1EE10FA36D9F4EEC67AF1EE10FA8A
:10221000C0F2CD8247F6FE7048F82200D9F80C00D3
:102220000144D1ED007A66EEA77AF4EEC77AF1EEBA
:1022300010FA1ED9F4EEC67AF1EE10FAC0F2AF82AF
:1022400047F6FE714AF82210023294427FF6B1AD91
:1022500051080EEB81008900D0ED007A66EEA77A76
:10226000F4EEC77AF1EE10FAA0D83046A6E7304671
:10227000B9E73146E6E73046CEE7002C00F0E081D2
:10228000BBF1020FD8F8243000F0E1817A69DCF864
:10229000081003EB820EC7F804909300DFED6B5A31
:1022A0000EF1040000227B61DCF80C303B61331D31
:1022B000D7F810903D61FD69C7E902CB8C46834693
:1022C00056F82210D8ED0C7A07EE101A53F82210A7
:1022D000B8EEC76A07EE101A5EF82210F8EEC76A69
:1022E00007EE101A26EE256A5BF82210B8EEC77AC0
:1022F00066EEA56A26EE276A27EE257A66EEA76ABD
:1023000027EE277A07EE901A51080232F8EEE77AA4
:102310000AEB8100944280ED006A05EB810067EED4
:10232000A57AC0ED006A0CEB810009EB810180ED1C
:10233000007A98ED0C7A67EE877AC1ED007ABFD803
:10234000D7F804903D69D7E902CB60466208BB69C3
:1023500049469847D8F82C307A69D8ED0D6A1A4466
:102360009FED3E7A9FED3E6A131D9246DFF8E4C072
:102370000022FB612B1D364ED9E9008E4EE0F4EEB3
:10238000C67AF1EE10FAC0F2FC81304645F8220020
:102390000EEB0100D0ED007A66EEA77AF4EEC77A74
:1023A000F1EE10FA49D9F4EEC67AF1EE10FAC0F265
:1023B000EF813046BBF1020F43F822002AD0D9F852
:1023C00008000844D0ED007A66EEA77AF4EEC77AEA
:1023D000F1EE10FA35D9F4EEC67AF1EE10FAC0F249
:1023E000C98130464AF82200D9F80C000144D1EDE9
:1023F000007A66EEA77AF4EEC77AF1EE10FA1ED9EB
:10240000F4EEC67AF1EE10FAC0F2AD813146F86909
:1024100040F82210023294427FF6CBAC510808EB10
:1024200081008900D0ED007A66EEA77AF4EEC77AD3
:10243000F1EE10FAA3D86046A8E76046BAE7614615
:10244000E5E76046CEE700BF0280FFFF00000030F6
:102450000082FF7F007E00800000003404FF7FBF09
:1024600004FF7F3F002C00F0EB807A690021D8F850
:102470002430C7F8109003EB820ED7F81C9093001D
:10248000FD610EF104021FED0C6A7B61331D1546E0
:1024900056F821204808D8ED0C6ABBF1020F82F4EF
:1024A0000002A2F5000207EE902A53F8212082F4E0
:1024B0000002B8EEE77AA2F5000227EE067A07EEF0
:1024C000902A0AEB8002F8EEE77A27EE267A67EE8A
:1024D000867A82ED007A09EB80024FEA800067EE8F
:1024E000A67AC2ED007A27D05EF8212082F400029D
:1024F000A2F5000207EE902A55F8212082F400028E
:10250000B8EEE77AA2F5000227EE067A07EE902AE7
:10251000DCF80820F8EEE77A024427EE267A67EE28
:10252000867A82ED007A98ED0C7ADCF80C2067EE62
:10253000877A0244C2ED007A02318C42A8D8D7F8DB
:10254000109060466208BB694946FD699847D8F813
:102550002C307A69D8ED0D6A1A441FED407A1FEDD0
:10256000406A131D9246DFF8C4C20022FB612B1D96
:10257000AB4ED9E9008E4EE0F4EEC67AF1EE10FAD9
:10258000C0F2C580304645F822000EEB0100D0EDC8
:10259000007A66EEA77AF4EEC77AF1EE10FA49D91E
:1025A000F4EEC67AF1EE10FAC0F2BF803046BBF10D
:1025B000020F43F822002AD0D9F808000844D0EDD1
:1025C000007A66EEA77AF4EEC77AF1EE10FA35D902
:1025D000F4EEC67AF1EE10FAC0F2AE8030464AF858
:1025E0002200D9F80C000144D1ED007A66EEA77AFA
:1025F000F4EEC77AF1EE10FA1ED9F4EEC67AF1EED7
:1026000010FAC0F28B803146F86940F8221002328D
:1026100094427FF6CEAB510808EB81008900D0EDE3
:10262000007A66EEA77AF4EEC77AF1EE10FAA3D834
:102630006046A8E76046BAE76146E5E76046CEE750
:10264000224649466046BB699847FFF7B2BBC7F8C8
:1026500010B0002298ED0C6A331DDFED726AD7F8D6
:102660001CB0786956F8221007EE901A53F8221021
:10267000B8EEE77A07EE901A51080232F8EEE77AE0
:1026800027EE267A0AEB810E94420BEB810167EE6E
:10269000A67A27EE067A67EE867A8EED007AC1ED8D
:1026A000007ADFD88300D7F810B07B614DE61A4678
:1026B000C7F810B098ED0C6A331DDFED5B6AD7F8F0
:1026C0001CB0786936F9221007EE101A33F922107F
:1026D00007EE901AB8EEC77A51080232F8EEE77AA0
:1026E00027EE267A0AEB810E94420BEB810167EE0E
:1026F000A67A27EE067A67EE867A8EED007AC1ED2D
:10270000007ADFD88300D7F810B07B6134E5F0EEB3
:10271000675AFEEEE45A15EE900A34E7F0EE675A77
:10272000FEEEE45A15EE901A6EE7F0EE675AFEEEF2
:10273000E45A15EE900A3AE7F0EE675AFEEEE45AD4
:1027400015EE900A4BE767EEA57AFDEEE77A17EEF5
:10275000900A00B232E567EEA57AFDEEE77A17EE51
:10276000900A00B23FE5F0EE675AFEEEE05A15EE31
:10277000901A4CE6F0EE675AFEEEE05A15EE900A1B
:1027800030E6F0EE675AFEEEE05A15EE900AFDE5EF
:10279000F0EE675AFEEEE05A15EE900A0AE667EE92
:1027A000A57AFDEEE77A17EE901A09B24AE567EED0
:1027B000A57AFDEEE77A17EE900A00B22CE5F0EE6E
:1027C000675AFEEEE45A15EE902A1FE467EEA57AEA
:1027D000FDEEE77A17EE902A12B2FFF731BBF0EE6A
:1027E000675AFEEEE45A15EE902AFFF7FDBBF0EEB5
:1027F000675AFEEEE05A15EE902AFFF79BBBF0EE0B
:10280000675AFEEEE05A15EE902AFFF780BB67EE9E
:10281000A57AFDEEE77A17EE902A12B2FFF724BBF5
:1028200082FF7F0000000030000000387E0080FF43
:1028300030B5184C154685B0046004F1080EEC461E
:102840000FC98EE80F00D4ED047AF5EEC07A8CE85B
:102850000F00F1EE10FA1ADDB7EE006A94ED057A7A
:1028600027EE277AC6EE276A84ED0D7AC4ED0C6A4E
:102870006DB1204640F8185F01F05AFF0649036920
:102880000020064A2162A262E36005B030BD01204B
:1028900005B030BD600A0024002000300000003088
:1028A00000680830704700BFB1F5807F03680A46B2
:1028B00028BF4FF48072B1F5807F9A6094BF0020EA
:1028C000012070470068183001F092BF70B50468AD
:1028D0008AB0A369E160CBB104F11805284601F084
:1028E00027FF8446EE46E668BCE80F00AEE80F001E
:1028F000BCE80F00AEE80F009CE803008EE8030080
:1029000069462846049601F01BFEF8B9E069D8B183
:1029100004F11C05284601F00BFF8446EE46E468EE
:10292000BCE80F00AEE80F00BCE80F00AEE80F00F7
:102930009CE803008EE8030069462846049401F0F1
:10294000FFFD003818BF01200AB070BD01200AB099
:1029500070BD00BF30B5046883B00D46E3694BB16C
:10296000A3680020E26A616A9B00009004F11C00E9
:1029700001F0E0FEA3680748A26A9B00216A00906C
:1029800004F1180001F0D6FE0020C4E9005003B0A5
:1029900030BD00BF751C000810B4074B4FF07E51CE
:1029A00030240022032019619C60D8605DF8044B3C
:1029B0005961C3E906227047600A0024F6EE007AE6
:1029C0009FED166A20EE207A0160F7EE006A80ED36
:1029D000036A80ED020A27EE277AC6EE877AF4EEC4
:1029E000E67AF1EE10FA11DDF0EE667A4FF07E51E4
:1029F0004FF0000C02760022C0ED017AC0F814C03E
:102A0000016143768276C0ED070A7047F4EEC67A1C
:102A1000F1EE10FAEAD5F0EE467AE7E700000000A2
:102A20000268037E128807EE902AFBEEC87A1BB17B
:102A3000B7EE007A77EE677AD0ED056A90ED047A0A
:102A400077EEE67A437E67EE877A0BB1F1EE677A2E
:102A500090ED030A90ED017A77EEC07AA7EE270A8F
:102A600080ED030A704700BF704700BFF8B5134FF1
:102A70003C687F2C07D98023114A42F224411C462E
:102A80003B60A2F87E100F4D2B68012B0AD90C4E2B
:102A90000D4D22463146284600F0FAF90028F8D1BB
:102AA0003860F8BD22460649074800F0F1F90028D1
:102AB000F7D12B68386001332B60F8BD9C0A0024E5
:102AC000A00A0024980A0024200B002430B4154CDE
:102AD0002168F1B14B1E144DE81810F801298C46FD
:102AE00019460A2A01D00D2A02D14BB1013BF4E765
:102AF0000CF102037F2B10D98023236030BC704778
:102B00000122022323600D200A236854AB5430BCF9
:102B1000704701220223044DF4E70CF101026146E3
:102B2000F0E700BF9C0A0024A00A002410B5094C5D
:102B300002460B46084821680844C1F1800111F0A3
:102B4000AFFB236818442060FFF7C0FFFFF78EFF3C
:102B500010BD00BF9C0A0024A00A00240FB400B5D9
:102B600083B004A951F8040B0191FFF7DFFF03B014
:102B70005DF804EB04B0704710B5044600210A4824
:102B800000F000F9002C094B14BF02220022084873
:102B90001A60FFF7E3FF0748FFF7E0FF0A20BDE8F0
:102BA000104001F0EDBE00BF200B0024980A002465
:102BB000F065010800660108064A0749074808B59C
:102BC00010F0D2F8034A04490548BDE8084010F067
:102BD000CBB800BF00000024692A0008200B0024A5
:102BE000240B0024DFED167A8C46B4EE670A10B58C
:102BF00004468646F1EE10FA2DED028B80ED080AB0
:102C000048BFB0EE670AC0ED090AB0EE608A80F8EE
:102C10003420BCE80F00AEE80F009CE80F008EE8FF
:102C20000F0010F049FAF0EE407AB0EE480AC4ED19
:102C30000A7A10F041FA84ED0B0ABDEC028B10BD4C
:102C400095BFD63390F8343010B50446032B4BD8DB
:102C5000DFE803F03B2A1502FFF7E2FE60EE006AB0
:102C6000D4ED087A94ED097A26EE800A37EE677A79
:102C7000E0EE077AC4ED0C7AB0EE670A10BDFFF7FC
:102C8000CFFE94ED0A7AD4ED0B7A77EEC77AA0EEF8
:102C9000277AB0EE470A10F09DF9F0EE407A84ED05
:102CA0000C0AB0EE670A10BDFFF7BAFED4ED087A41
:102CB00094ED097A20EE000A37EE677AE0EE077AA3
:102CC000B0EE670AC4ED0C7A10BDFFF7A9FED4ED93
:102CD000087A94ED097A37EE677AE0EE077AB0EE7B
:102CE000670AC4ED0C7A10BDD0ED0C7AC4E700BFC2
:102CF00070B5044682B0C1F30726CDB2ADF804101A
:102D000001F03CFE4FF480724FF001232060A01DC3
:102D1000A571A280E671A36002B0BDE8704000F02A
:102D2000DDBB00BF38B5044601F028FE0022236851
:102D30002271834210D00122A57AE37A9540206067
:102D40002271A01D6DB243B900F0A4FC40B228432B
:102D5000C0B27F28A0720AD038BD00F09BFCB0FA48
:102D600080F040092843C0B27F28A072F4D101F05E
:102D700005FE07EE900AF8EE677AC4ED037A38BDD7
:102D8000704700BF012910B506D0022915D051B1F6
:102D9000BDE8104006F008BB0A46344834490AF042
:102DA0009DFCE8B1FEE7334B0A46334C33493448C7
:102DB0001C600AF093FC68B1FEE701222C492B4805
:102DC0000AF08CFC00B1FEE72E4928480AF0A8FC66
:102DD000C0B1FEE72B492A480AF0A2FC60B1FEE729
:102DE000284922480AF09CFC00B1FEE726491F480A
:102DF0000AF024FC08B3FEE7244921480AF01EFC2F
:102E0000A8B1FEE7204919480AF018FC00B1FEE716
:102E100016480AF09BFC024640B9164B164C17495F
:102E200017481C600AF05AFC68B1FEE7FEE7144838
:102E30000AF08CFC0028ABD0FEE70C480AF086FCB8
:102E40000028A5D0FEE70F490D480AF069FC00B143
:102E5000FEE70E490A480AF0F1FB00B1FEE7084818
:102E60000AF074FC002893D0FEE700BFC40D0024D4
:102E7000A400002460100024812D00088800002494
:102E8000280B00240C0100246800002458000024B2
:102E9000084691B208B502F01BF8003818BF0120AF
:102EA00008BD00BF014805F05DBD00BF483B0024E0
:102EB000014805F057BD00BF483B0024014805F01C
:102EC00051BD00BF483B002482B04FF0000C0323EB
:102ED000ADF80410BDF8042080F810C002804380D3
:102EE00002B070472DE9F04FBE4E00258FB0BE4CAA
:102EF000037006F140034260074601928846202293
:102F000029463046C4F85831C4F85461CDE9035518
:102F1000CDE90555CDE90755CDE90955CDE90B5565
:102F200010F052FC2022294604F59970C4F8215172
:102F3000C4F82551C4F82951C4F82D5110F044FCAF
:102F4000019B84F8385284F820317A68002A5FD0D7
:102F50002B464146B64604F5907599464FF0010A56
:102F600003EB0310D1F800B0D1F804800133D1F89D
:102F700008C02218CE6844F800B0C2F80480C2F835
:102F800008C0D660087C2EF8029B10740A7C05F8F5
:102F9000012F002A69D07A68113184F838A29A4248
:102FA000DED84FF4802291489DF8043008214FF07C
:102FB00000084FF00009C4F874310023C4E9570237
:102FC0000122C4F8643184F87031C4E95A2194F8BC
:102FD0003812C4E9608981B3C4F88821002284F8DA
:102FE000713184F878313B78C4E96322A3B30122BC
:102FF00000200121013B84F89421C4E96801082BD9
:103000002CD8DFE803F0ABB0B5BABFC4C9CFD60047
:103010009DF804300121C4F86421C4F874314FF4E0
:10302000802384F87021714AC4E9572308230022C1
:10303000C4E95A130023C4E960230123002284F861
:103040007131002384F878310323C4F888313B7848
:10305000C4E96322002BCAD184F89431644803F098
:1030600073F8034638B1FFBEFEE77A6811319A4221
:103070003FF676AF95E703A95D48039303F0C2F9E5
:103080000546002868D1022240F2FF73CDE90823EB
:1030900000230422CDE90A2394F82031002B00F00C
:1030A000D5804FF0060921E0022B00F08980012B2A
:1030B00040F0C4809AF80130012B00F0C180002B51
:1030C0004C4B18BF002306A94948CDE9063902F048
:1030D00067FC002840F0BF80013594F82031EDB244
:1030E000AB4240F2B380444B53F825902FB207EB2C
:1030F000071704EB070A504600F0F0F905EB05133B
:1031000023441B7C042B7DDC022B00F3918000F018
:103110008D806319002283F81021E35D002BC3D159
:103120009AF80130062B00F08580072B00F08A808A
:10313000022B00F09680032B00F09580002B00F00E
:103140009680012B00F09180042B00F09280052BDB
:103150002A4B18BF0023B6E7FFBEFEE70322402339
:10316000C4E966237AE707226023C4E9662375E78A
:103170000F228023C4E9662370E71F22A023C4E93D
:1031800066236BE73F22C023C4E9662366E77F22FC
:10319000E023C4E9662361E7FF224FF48073C4E9AA
:1031A00066235BE740F2FF124FF49073C4E9662395
:1031B00054E740F2FF324FF4A073C4E966234DE7B1
:1031C0009AF80130042B37D0052B3DD0002B40D08E
:1031D000012B42D0022B42D0032B094B18BF0023F6
:1031E00071E700BF0040003068100024002002405A
:1031F000C41100240002B025106601080000B84F79
:103200000020903603233E1D04EB05084FF0000B11
:10321000264488F8103130460BF1010B00F05EF9BE
:1032200098F8103104365B45F5DC76E70123EAE7D0
:103230000223E8E7104B46E7104B44E7002342E740
:103240000F4B40E70F4B3EE70F4B3CE70FB0BDE89D
:10325000F08F0E4B37E7FFBEFEE70D4B33E70D4B0C
:1032600031E70D4B2FE70D4B2DE70D4B2BE70D4BAA
:1032700029E70D4B27E700BF0800900C1000C01095
:103280002000F0148000501D000180210004002A5D
:103290000008302E001060320040C03A0080F03E3E
:1032A00000005247000021430000844B38B5094C10
:1032B00040F2FF724FF0011104F5AE75284603F09D
:1032C0004FF894F82021D4F854112846BDE838402E
:1032D00002F0BABD68100024034B0F29D3F8540143
:1032E00098BF00EB4100704768100024214B026832
:1032F0009A4200D07047204A00232048D2F8D810C4
:1033000030B51F4C41F0200183B0C4F8C001092042
:1033100004F5E075C4E971034FF48060C2F8D81079
:10332000D2F8D8204FF40061C4E9733094F8380221
:1033300002F02002C4F8D4114FF4005198420192D7
:103340002846C4F8D811C4E97833019B14BF002380
:103350004FF48073C4F8DC3103F07AFA08B1FFBE91
:10336000FEE704F5AE73C4F8A851C4F8F83103B011
:1033700030BD00BF0020024000440258400002401F
:1033800068100024014803F0DBBD00BF28120024B0
:1033900002682DE9F84F4B4B9A4201D0BDE8F88FF7
:1033A000494D95F83832002BF8D095F82031002B94
:1033B00077D0002405F10C0905F5997605F590778D
:1033C000A04613E003F0010117F811BCA9F10800B1
:1033D00000F06EF9BBF1010F25D895F820310134CA
:1033E00009F111090236A2B293422BD917F8012F25
:1033F000002AF4D0D5F854310021327833F8140083
:10340000D5F8583103EB041323F812003388013345
:103410009BB233805FFA83FA3A789A42D2D88A46CE
:10342000A6F80080D0E7CAF34001A9F1040000F03B
:103430003FF9BBF1020FCAF38001CED0484600F03D
:1034400037F9CAE7002395F8380220490922984243
:10345000C5F8C8314FF48060C5F8C011C5F8C42163
:103460004FF400614FF40052C5F8CC3108BF4FF45F
:103470008073C5F8D821C5E9740100221448C5E954
:103480007732C5F8E42103F0E3F908B1FFBEFEE7A7
:1034900095F82021D5F854110E48BDE8F84F02F0F8
:1034A000D3BC0A4909224FF48060C5F8C831C5E988
:1034B00070124FF400614FF40052C5E97330C5E952
:1034C0007512DAE700200240681000244000024034
:1034D00028120024C4110024704700BF8378022BF7
:1034E00030B504468FB037D0032B33D0012B31D009
:1034F00000230A93E378012B2AD0022B28D0002343
:103500000B93002320460C9302F0C4F80546204696
:1035100002F0C8F823780990082B13D8DFE803F0ED
:103520001F3245586B7E91A40500594BD3F8E0201B
:1035300042F48072C3F8E020D3F8E03003F48073E3
:103540000893089B09A9284604F04CF80FB030BD39
:103550000B93D6E70A93CDE711230A93CAE74C4BA6
:1035600009A92846D3F8E02042F00102C3F8E02080
:10357000D3F8E03003F001030093009B04F032F82D
:103580000FB030BD424B09A92846D3F8E02042F0E5
:103590000202C3F8E020D3F8E03003F00203019305
:1035A000019B04F01FF80FB030BD394B09A9284624
:1035B000D3F8E02042F00402C3F8E020D3F8E03072
:1035C00003F004030293029B04F00CF80FB030BD2B
:1035D0002F4B09A92846D3F8E02042F00802C3F88F
:1035E000E020D3F8E03003F008030393039B03F0DB
:1035F000F9FF0FB030BD264B09A92846D3F8E020CB
:1036000042F01002C3F8E020D3F8E03003F01003DA
:103610000493049B03F0E6FF0FB030BD1C4B09A9D7
:103620002846D3F8E02042F02002C3F8E020D3F887
:10363000E03003F020030593059B03F0D3FF0FB0A8
:1036400030BD134B09A92846D3F8E02042F04002D0
:10365000C3F8E020D3F8E03003F040030693069B64
:1036600003F0C0FF0FB030BD094B09A92846D3F8BD
:10367000E02042F08002C3F8E020D3F8E03003F00D
:1036800080030793079B03F0ADFF0FB030BD00BF71
:103690000044025838B5054601F0FCFF04462846B0
:1036A00002F000F801462046BDE8384004F0A2B917
:1036B00070B506460D4601F0EDFF0446304601F0B8
:1036C000F1FF2A1E0146204618BF0122BDE87040C6
:1036D00004F096B90023122270B586B0CDE902231A
:1036E00004930368032B01D804230593061D841D4E
:1036F000304601F0CFFF0546304601F0D3FF0346C8
:1037000001A92846019303F06DFF204601F0C2FF96
:10371000034620461C4601F0C5FF01A9034620468A
:10372000019303F05FFF06B070BD00BF634A0368FA
:10373000934210B58CB028D0614A934258D0614A68
:10374000934200F09480604A934201D00CB010BDC7
:103750005E4C5F48D4F8E03043F00203C4F8E03038
:10376000D4F8E03003F002030A930A9BFFF7B2FF9C
:10377000D4F8F43043F08003C4F8F430D4F8F430D3
:1037800003F080030B930B9BE0E7504C5148D4F8B7
:10379000E03043F00203C4F8E030D4F8E03003F046
:1037A00002030193019BFFF795FFD4F8E830002254
:1037B0001F2043F400131146C4F8E830D4F8E83071
:1037C00003F400130293029BD4F8D83043F00103B2
:1037D000C4F8D830D4F8D83003F001030393039B26
:1037E00002F084FE1F200CB0BDE8104002F0BCBE09
:1037F000364C3948D4F8E03043F08003C4F8E03068
:10380000D4F8E03003F080030493049BD4F8E03054
:1038100043F00203C4F8E030D4F8E03003F00203D0
:103820000593059BFFF756FFD4F8E83000222120CE
:1038300043F480031146C4F8E830D4F8E83003F4C8
:1038400080030693069BD4F8D83043F00103C4F8F4
:10385000D830D4F8D83003F001030793079B02F067
:1038600045FE21200CB0BDE8104002F07DBE1B4893
:10387000FFF730FF154B00224820D3F8E8401146EF
:1038800044F40004C3F8E840D3F8E84004F400042A
:103890000894089CD3F8D84044F00104C3F8D840F9
:1038A000D3F8D83003F001030993099B02F01EFE00
:1038B00048200CB0BDE8104002F056BE0054004055
:1038C00000580040005C0040001C005800440258B2
:1038D00030150024A812002480130024581400245A
:1038E0002DE9F0431A4B87B000254FF010099E4692
:1038F000EC46184BFF22E04667461A700EF1180698
:103900000EF13004CDE90055CDE90255ADF8009037
:10391000BCE80F00CDE90455AEE80F009CE80300B9
:103920000095ADF800908EE80300B8E80F000FC6D0
:103930009CE803000095ADF8009086E803000FCFE7
:103940000FC49CE8030084E8030007B0BDE8F083DF
:1039500008000024A412002410B5EFF3108472B6FE
:10396000084B1A78120602D504B962B610BD1B784E
:10397000D82205485BB202FB0300143003F0E0FAE2
:10398000F2E700BFA4120024A8120024014804F0AA
:10399000CFBE00BF34130024014804F0C9BE00BFED
:1039A0000C140024014804F0C3BE00BFE41400243A
:1039B0002DE9F0430F68D8243F4D85B007FB04F490
:1039C000032F05EB0403036040DCCB680E46012B9C
:1039D0003CD84DD04FF0D808B646DFF8FC9008FB35
:1039E0000758BEE80F00C446ACE80F00DEF8003010
:1039F0000DF1100ECCF80030D8F808C099E80F008F
:103A00000EE90F000EEB8703BCF1010F53F8103CD9
:103A1000C8F88C3031D0BCF1020F42D0BCF1000F9D
:103A200035D0317C8C34D823002201202C4403FB78
:103A300007534900C3E92602C3F894102046C3E99E
:103A40002822C3E92A2204F065FC18B1012005B040
:103A5000BDE8F0830146204604F076FE0028F5D14B
:103A60000146204604F09AFE003818BF0120EEE718
:103A70000B7C103B672BADD9E8E701F0EDF80F4B5D
:103A800098420CBF0E4B0F4BC8F89030C9E701F0BD
:103A9000E3F80A4B98420CBF0B4B0C4BC8F8903024
:103AA000BFE701F0D9F8054B98420CBF084B094B12
:103AB000C8F89030B5E700BFA8120024000E270711
:103AC0002D0FB0303211D0205F4390608A62E03019
:103AD000200BA0101A098010586501082DE9F0414B
:103AE000D0F8008082B00D4617461E4608F18C04BF
:103AF000204604F025FE2028FAD1D8F80C3073B9FE
:103B00006D002046089C33463A46A9B2009404F062
:103B100057FC003818BF012002B0BDE8F081089BB7
:103B200032463946204604F01FFDF2E7044B1022CE
:103B30001A7483F8E82083F8C02183F8982270472C
:103B4000A812002430B5002395B04FF480710622EE
:103B500004460B9306921393CDE90C13CDE90E3373
:103B6000CDE9113301F07AF807282BD004F11005C4
:103B700041F2883206A9284605F062FD28B10123EA
:103B8000184684F85C3015B030BD0222022306A925
:103B90002846CDE9002310220123CDE9022300228B
:103BA0004FF48003CDE9042305224FF08073069281
:103BB0006A460F9341F2883305F0AEFE0028DED14D
:103BC00015B030BD0323012084F85C3015B030BD42
:103BD00070B50023A4B04FF080724FF48075044696
:103BE000ADF806300D93CDE910320122CDE90E5328
:103BF000CDE91223CDE91433002943D0F02300F19D
:103C0000100508AEADF80630C02341F288323146C7
:103C10002846089305F014FD28B10123184684F8BE
:103C20005C3024B070BD41F288320DF106012846A7
:103C300005F070FD03460028EFD105224FF4807196
:103C40001E93284616924FF080721B9321931F9269
:103C500002AA9FED1F7BCDE91C13CDE922338DED28
:103C6000027B9FED1D7B41F2883316A98DED047B0D
:103C70009FED1B7B8DED067B05F04EFE0028CCD121
:103C800024B070BD00F1100508AE612341F2883206
:103C900031462846089305F0D3FC0028BDD141F2F7
:103CA00088320DF10601284605F0B2FD0028B4D196
:103CB000BDF80630204623F0780343F04003ADF80A
:103CC0000630FFF73FFF00289ED0A6E7AFF3008045
:103CD00000000000010000001000000001000000D2
:103CE00000000000000040002DE9F04F00234FF4D9
:103CF000807501264FF0807804462DED028BABB025
:103D00008DF8073013932193299314950E96CDF8CF
:103D10005C80CDE91533CDE91863CDE91A33CDE9DF
:103D20002253CDE92433CDE9273306231C9300F039
:103D300095FF072808D004F1100741F288321CA92A
:103D4000384605F07DFC40B10123184684F85C300C
:103D50002BB0BDEC028BBDE8F08F4FF0020A4FF0A4
:103D6000020B4FF0050941F2883308AA1CA9384616
:103D7000CDF89480CDF870909FED2D8BCDE908ABF8
:103D80004FF0000A4FF4800B8DED0A8BCDE90CABA0
:103D900005F0C2FD0028D7D141F2883238460EA97D
:103DA00005F04EFC0028CFD1402341F288320DF1BE
:103DB000070138468DF8073005F0ACFC0028C3D168
:103DC00041F288330EA902AA3846CDF83890CDF8D2
:103DD0005C809FED197B8DED048BCDE906AB8DEDFD
:103DE000027B05F099FD03460028ADD1CDF8709017
:103DF0004FF00109CDF894804FF00008219308AAF4
:103E000029931CA938462295CDE92333CDE92733E0
:103E100041F288338DED0A8BCDE90CABCDE90889F1
:103E200005F07AFD002893D0304684F85C608FE777
:103E300010000000010000004000000040000000F1
:103E40002DE9F043624CA3B00D46046000F006FF7C
:103E5000072800F0A980286823466968AA6807C374
:103E60001E46AB8926F8043B3046257B677B05F070
:103E7000C9FBE0B9574B012D4FF00108E061236108
:103E800014BF4FF480134FF40003C4E9058893FA7C
:103E9000A3F3B3FA83F34FF48079013BC4F8249081
:103EA000C4E90B003046236205F040FB38B1012223
:103EB000134684F85C20184623B0BDE8F0836623DF
:103EC0000B90139041F2883206A90693CDE90C902D
:103ED000CDE90E00CDE91100304605F0B1FB002818
:103EE000E5D1992341F2883206A93046069305F0C0
:103EF000A7FB0028DBD105231C9019906A46149378
:103F00004FF08073219014A91D9341F288339FEDE7
:103F10002A7BCDE91A90CDE91F008DED007B9FED46
:103F2000287B30468DED027B9FED277B8DED047B5A
:103F300005F0F2FC0028BAD129462046FFF748FEDA
:103F40000028B4D12046FFF7CFFE03460028AED1AB
:103F5000002FB0D1189330460027002606AA14A9D6
:103F6000CDF86890CDE91F33EB2314934FF44063F1
:103F70001B934FF4005317934FF440431C93A0231B
:103F80001693062319934FF0805321934FF04073FB
:103F9000CDE906671D9305F037FD034600288AD05A
:103FA000434684F85C8086E701230322184684F8A0
:103FB0005C2023B0BDE8F083000000000100000099
:103FC00010000000010000000000000000004000A0
:103FD00008160024005000522DE9F04F8FB0414BDD
:103FE0000024026800AF9A427C63C7E90944C7E92C
:103FF0000B4403D03C37BD46BDE8F08F3A4B40F64A
:1040000009213A48EB46D3F8D42007F11C0607F102
:10401000220A4FF0020942F480424FF00308C3F82D
:10402000D420D3F8D42002F48042BA60BA68D3F81E
:10403000E02042F04002C3F8E020D3F8E02002F094
:104040004002FA60FA68D3F8E02042F02002C3F898
:10405000E020D3F8E02002F020023A613A69D3F878
:10406000E02042F01002C3F8E020D3F8E02002F094
:1040700010027A617A69D3F8E02042F00202C3F8B4
:10408000E020D3F8E030F86103F002033984BB612B
:10409000174B7B60BB697B6853F8040F7B6001F0B2
:1040A000F9FA7B680546186801F0FCFA16F8013B3E
:1040B000786207F124012846C7F830807B63C7E99E
:1040C0000A9403F08FFA5645E5D100225C20114690
:1040D00002F00CFA5C2002F047FA3C37DD46BD46A0
:1040E000BDE8F08F00500052004402580A0A090946
:1040F00064160024114B02689A4200D07047104A9F
:1041000070B5D2F8D4300F4C23F4804304F1180674
:10411000C2F8D43054F8040F01F0BCFA0546206808
:1041200001F0C0FA0146284603F09CFBB442F1D1ED
:104130005C20BDE8704002F025BA00BF005000527C
:104140000044025864160024014805F0E9BC00BF91
:1041500018160024084B1A1D981D03F1080110B40D
:104160009C1C9A6603F10A02C3E91834C3E91B01D7
:104170005DF8044B5A6770470816002438B5036889
:1041800071B9026A00F1280500F5AC74012A0CBF70
:10419000002140218BBB1D4B5722C0F858310DE048
:1041A000426A00F1C00500F5E874012A0CBF002145
:1041B0004021EBB1164B5A22C0F8D03100232046E3
:1041C000C4E901214FF480524FF48061636262615F
:1041D0004FF48042C4E903314FF48073C4E90623ED
:1041E0004FF40033236202F033FB58B1FFBEFEE709
:1041F000084B5822C0F8D031E0E7074B5922C0F8ED
:104200005831DBE7C5E92044A56338BD1000024002
:104210007000024028000240580002402DE9F0439F
:10422000821D05468BB0031D05F10A010830CDE95A
:10423000052305F10C02AB69CDE907010992002BBA
:104240003DD0EB69B3FA83F84FEA581801230222F4
:1042500005AE0AAF4FF006090393CDE9012356F8E6
:10426000044B2B792278934216D02B68F3B1012BA3
:1042700002D1F2B10A230493204601F013FA034657
:104280002046009301F006FA694603F0ABF9BE42FE
:10429000E5D10BB0BDE8F083697963789942E4D148
:1042A000B8F1000FF3D02B68002BE0D1CDF81090BF
:1042B000E2E76378022B14BF0A230823DBE74FF001
:1042C0000108C3E7534A0368934230B505468BB0F3
:1042D00055D02032934252D04F4A934204D02032DC
:1042E000934201D00BB030BD4C4C4D48D4F8E03077
:1042F00043F00103C4F8E030D4F8E03003F00103E8
:104300000593059BD4F8E03043F00803C4F8E0308F
:10431000D4F8E03003F008030693069BD4F8E030AD
:1043200043F04003C4F8E030D4F8E03003F0400339
:104330000793079BD4F8F03043F40003C4F8F0303F
:10434000D4F8F03003F400030893089BFFF766FFEE
:10435000D4F8D830296843F001032F4A3048C4F814
:10436000D830891AD4F8D83018BF012103F00103DE
:104370000993099B0BB0BDE83040FFF7FFBE274C07
:104380002848D4F8E03043F00103C4F8E030D4F812
:10439000E03003F001030093009BD4F8E03043F0D9
:1043A0001003C4F8E030D4F8E03003F010030193B8
:1043B000019BD4F8E03043F04003C4F8E030D4F877
:1043C000E03003F040030293029BD4F8F03043F452
:1043D0008003C4F8F030D4F8F03003F48003039382
:1043E000039BFFF71BFFD4F8D830296843F0010383
:1043F000084A0C48C4F8D830891AD4F8D83018BF05
:10440000012103F001030493049B0BB0BDE830408D
:10441000FFF7B4BE04580140045C01400044025858
:10442000DC18002480160024014802F089BD00BF7A
:10443000D8170024014802F083BD00BF50180024A3
:10444000014802F07DBD00BF341A0024014802F08B
:1044500077BD00BFAC1A00241A4A0368934210B417
:104460000BD02032934208D0174A934216D0203204
:10447000934213D05DF8044B7047144B0022D3F8DD
:104480005442C3F85822002CF4D0D3F84802D3E9A0
:10449000931223465DF8044B520818470B4B002239
:1044A000D3F8B044C3F8B424002CE3D0D3F8AC2440
:1044B000D3F8A814D3F8A404520823465DF8044B9B
:1044C000184700BF04580140045C014080160024D6
:1044D000184A0368934210B40BD02032934208D09C
:1044E000154A934217D02032934214D05DF8044B02
:1044F0007047124BD3E994245208C3F85822002C79
:10450000F4D0D3E99201234601EB820100EB820053
:104510005DF8044B1847094BD3F8AC24D3F8B044EA
:104520005208C3F8B424002CE0D0D3F8A814D3F870
:10453000A404E8E704580140045C0140801600240C
:104540002DE9F04F0C684FF41776754F87B004FBD8
:1045500006F6012C07EB060AC0F800A000F3A080C5
:104560000D468E464FF00008D44669A3D3E90023D8
:1045700069A1D1E90001CDE9022306ABCAF8508256
:1045800003EB8403CDE9040153F810BC53F8083C55
:10459000CAE992880193BEE80F00ACE80F00BEE8BC
:1045A0000F00ACE80F00019B9EE80300CAF828B09A
:1045B000CAF8C0308CE803002B69042B0CD8DFE864
:1045C00003F0737D879103004FF41773554A03FB83
:1045D00004739A64C3F8E020AA692B6A002A43D0C6
:1045E000002B4FF4177308BF022203FB047318BF9C
:1045F0000322DA6201221A63EA696B6A002A40D157
:10460000191E4FF4177318BF012103FB0473C3E98C
:1046100031126B69022B05D8434A12F80380434AD2
:1046200052F823904FF4177306F12800424649468A
:1046300003FB04740023384463646363E365C4F8D4
:10464000DC30C4F8CC30C4F8F430C4E90F33C4E92A
:104650001533C4E93533C4E93B33022307F002FBC9
:10466000002849D0FFBEFEE7191E4FF4177318BF8C
:10467000012103FB0473C3E90B12EA696B6A002A88
:10468000BED0002B4FF4177308BF022203FB047344
:1046900018BF0322C3F8C4200122C3F8C820B8E71A
:1046A000012007B0BDE8F08F4FF417734FF4FA52B2
:1046B00003FB04739A64C3F8E0208DE74FF417738B
:1046C0004FF47A5203FB04739A64C3F8E02083E743
:1046D0004FF417734FF4FA4203FB04739A64C3F860
:1046E000E02079E74FF417734BF6803203FB047335
:1046F0009A64C3F8E0206FE706F1C0000223424647
:104700004946384407F0AEFA0028CAD0FFBEFEE79B
:1047100004580140045C014024580140245C0140DD
:1047200080160024007701005066010854660108D5
:104730000068704770B5046882B015460E46C4F82C
:104740005032C4E99212069AC4F85422A269012A8E
:1047500026D0626A012A9AB211D0294604F1C0001B
:10476000019207F03BFB236A019A012B10D02946E6
:1047700004F1280007F032FB002002B070BD04F104
:10478000C000019207F0BCFB236A019A012BEED115
:10479000314604F1280007F0B3FB002002B070BDE1
:1047A000226A012A9AB211D0294604F12800019206
:1047B00007F014FB636A019A012B10D0294604F11B
:1047C000C00007F00BFB002002B070BD04F1280010
:1047D000019207F095FB636A019A012BEED13146F5
:1047E00004F1C00007F08CFB002002B070BD00BFD8
:1047F00003681B69042B05D8044A02EB830393ED7D
:10480000000A70479FED020A704700BF606601080A
:1048100000803B470368D3F858027047704700BFD9
:1048200008B501F047F8BDE8084001F027BF00BF18
:10483000064808B503680BB103F0E6F804480368BE
:104840001BB1BDE8084004F08DB808BD58450024F0
:10485000503F0024064808B503680BB103F0D4F8B4
:10486000044803681BB1BDE8084004F07BB808BDEC
:1048700058450024503F0024064808B503680BB192
:1048800003F0C2F8044803681BB1BDE8084004F017
:1048900069B808BD58450024503F0024364BDA6AF9
:1048A000520062D59A6A9A6A9A6A9B6A180600D57B
:1048B00000BE314B9B6A990600D500BE2E4B9B6A09
:1048C000DA0600D500BE2C4B9B6A1B0700D500BE44
:1048D000294B9B6A980700D500BE274B9B6AD907D6
:1048E00000D500BE244B9B6A1A0400D500BE224BA3
:1048F0009B6A9B0400D500BE1F4B9B6AD80400D561
:1049000000BE1D4B9B6A190500D500BE1A4B9B6A61
:104910005A0500D500BE184B9B6A9B0500D500BE0A
:10492000154B9B6AD80500D500BE134B9B6A9901B5
:1049300000D500BE104B9B6ADA0100D500BE0E4BBD
:104940009B6A1B0300D500BE0B4B9B6A580300D526
:1049500000BE094B9B6A990300D500BE064B9B6ABB
:10496000DA0306D400BE00BEFEE7DB6A9B07FAD579
:10497000F8E700BEF6E700BF00ED00E000F0A6BFDC
:1049800000F0AABF2DE9F041CEB004464C22002130
:104990000AA80EF019FF2022002102A80EF014FF31
:1049A000BC2200211EA80EF00FFF022004F0D6FC4E
:1049B0002368012B4FF0000354D0534A0225019382
:1049C000C820D16A514B21F00101D162D26A02F0B4
:1049D000010201929A6942F440429A619B6903F490
:1049E00040430193019B494A93699B04FCD5484984
:1049F0000224002201268B6A04274FF0080823F0C6
:104A0000030323438B62052316900AA818934FF4DF
:104A100080331096179419941597CDF86880CDE9D6
:104A20001B222122CDE91344CDE90A2305F080F9A8
:104A300000B1FEE73F220323294602A8CDE9022365
:104A400000220823CDE9042340224023CDE9062398
:104A500040234FF48062CDE9082305F097FC03461C
:104A6000B8B1FEE7294A04250093F0209169264B4E
:104A700041F440419161926902F440420092DA6A45
:104A800042F00102DA62DB6A03F001030093009B4B
:104A9000A9E720224FF4805125934FF440152B9223
:104AA00080222D931EA83093269135914FF480716A
:104AB000249234920C223394439140F22711209295
:104AC0001022CDF884802A971F96CDE92E34CDE9A7
:104AD0003B334FF48033CDE9224631930024469393
:104AE0000623CDE93E4527934FF48063094C2C9370
:104AF0001E94CDE9281205F0A5FE00B1FEE704F0F2
:104B000053FC4EB0BDE8F081000400580048025844
:104B1000004402580F130F032DE9F0410D460446DF
:104B200084B0D1E9000184E8030000F093FEAE797F
:104B3000002E37D06F460BF07DF9FEF7D1FE09F05D
:104B400049FE0AF001FF2B79002B54D16B799BB100
:104B5000BFF34F8FBFF36F8F3C4B0022C3F850223F
:104B6000BFF34F8FBFF36F8F5A6942F400325A611F
:104B7000BFF34F8FBFF36F8F4FF0FF32002300243E
:104B800000253946324802928DF80C30CDE90045B7
:104B90000AF040FA2E480AF0A5FA09F04BFA04B0E0
:104BA000BDE8F08120466F46FFF7ECFE012401F0DE
:104BB00013FD4FF040534FF4807838460193254B56
:104BC000ADF80040CDE9023801F024FD19224FF084
:104BD000404338468DF80F40ADF80D808DF8014008
:104BE0008DF80A608DF80820019301F013FD042070
:104BF00001F000FD9FE7154C0023C4F88430BFF39B
:104C00004F8FD4F8803043F6E07EC3F3C906C3F378
:104C10004E334FEA431C0CEA0E00334640EA8372DF
:104C2000013BC4F860225A1CF8D1ACF1200C1CF1F5
:104C3000200FF0D1BFF34F8F636943F4803363617A
:104C4000BFF34F8FBFF36F8F80E700BF00ED00E031
:104C5000381B00240E00010305F0C8BC1C4B9B68E8
:104C600003F17842B2F5003F25D3B3F5803F20D35E
:104C700003F16042B2F5003F1FD303F15C42B2F58D
:104C8000002F1CD303F17042B2F5902F19D303F11A
:104C90004842B2F5803F16D303F18042B2F1806FF3
:104CA00013D303F1E043B3F5000F2CBF0820072016
:104CB0007047012070470020704702207047032092
:104CC000704704207047052070470620704700BFDA
:104CD00000ED00E003480023034A044903600EF09E
:104CE00043B800BF381B0024000000241D48000802
:104CF00010B4204C0022204B83B0D4F888101F48F9
:104D000041F47001C4F8881019681D4C41F001018C
:104D100019601A61196808401A4918609A61DA61C5
:104D20001A629A62DA621A635A639A63DA631A64DD
:104D30005A64186820F4802018601A66D3F8DC20C2
:104D400042F06042C3F8DC20D3F8DC300193019BD1
:104D500023681940B1F1005F03D20B4B0122C3F865
:104D60000821044B4FF000629A6003B05DF8044BD9
:104D7000704700BF00ED00E0004402587FEDF6EA06
:104D80000010005C0000FFFF00800051704700BF72
:104D90000020704770B50446074E0D463046214648
:104DA00008F05EFC304608F07DFC044B20462946A6
:104DB0001B689847002070BD280B00243C3B002452
:104DC00070B50446074E0D463046214608F048FCB3
:104DD000304608F067FC044B204629461B6898477C
:104DE000002070BDC40D0024403B0024002209496E
:104DF000094808B508F02AFC0849074808F030FCC3
:104E0000074B1A680AB1002008BD064A00201A6044
:104E100008BD00BF3C2B0024280B00243C1B0024B1
:104E20003C3B00248D4D000800220949094808B583
:104E300008F00CFC0849074808F012FC074B1A68F8
:104E40000AB1002008BD064A00201A6008BD00BF54
:104E50003C330024C40D00243C230024403B0024A8
:104E60008D4D000820280AD0212806D1094B18684A
:104E70009A889B7908608A808B7100207047054B67
:104E80000868B1F804C08A7918600020A3F804C04B
:104E90009A7170477800002420280AD0212806D172
:104EA000094B18689A889B7908608A808B7100206A
:104EB0007047054B0868B1F804C08A791860002073
:104EC000A3F804C09A717047800000240020704746
:104ED00010B5094CD4F89032D3F814320BB101203C
:104EE00010BD0A460146204608F0B0FB2046BDE84A
:104EF000104008F0BDBB00BF280B00244B4A0368DC
:104F000030B593428BB04FF00004CDE90444CDE9B5
:104F10000644089404D0464A934249D00BB030BDB1
:104F2000444D4FF4C0524448D5F8E03043F00103FB
:104F3000C5F8E030D5F8E03003F001030093022318
:104F4000009904A9CDE904230A23089302F04AFB3F
:104F50004FF40072002304A937480694CDE90423D6
:104F600002F040FBD5F8D8302246214643F00063DA
:104F70006220C5F8D830D5F8D83003F0006301932B
:104F8000019B01F0B3FA622001F0EEFA22462146BD
:104F9000632001F0ABFA632001F0E6FA22462146D5
:104FA000652001F0A3FA652001F0DEFA0BB030BDF8
:104FB000204D4FF4404204A9D5F8E03043F00203FD
:104FC000C5F8E030D5F8E03003F002030293022385
:104FD00002981A48CDE904230C23089302F002FB3F
:104FE000D5F8D830224621464A2043F00073C5F850
:104FF000D830D5F8D83003F000730393039B01F049
:1050000075FA4A2001F0B0FA224621464B2001F001
:105010006DFA4B2001F0A8FA224621464D2001F0FE
:1050200065FA4D2001F0A0FA0BB030BD0000084039
:1050300000000440004402580000025800040258D6
:1050400000F57171D0F8040408F098BBC1EBC103FE
:1050500000EB8303D0F80404D3F8082208F0BCBBAB
:10506000C1EBC10300EB8303D0F804049A6C08F091
:10507000F1BB00BFD0F8040408F090BCC16810B5C3
:10508000044619B1022900D0FEE70121D4F8040436
:1050900008F06EFCD4F80404BDE8104008F040BCF1
:1050A00010B50446D0F8040408F066FC2268D2F873
:1050B000003E43F00103C2F8003E236A23B1034AD5
:1050C000136943F00603136110BD00BF00ED00E05B
:1050D000D0F8040408F05ABCD0F8040408F06EBC00
:1050E000D0F8040408F068BCD0F8040408F068BCE8
:1050F000D0F8040408F066BC70B5067804461EB10A
:10510000012E30D0002070BD304D0923304AC5F843
:105110000404C0F8985228462E612E63C5E9002386
:1051200002230222EB600023C5E9062300220023AC
:10513000C5E9082301220123C5E90A2303F05AFB2C
:1051400000B1FEE78021284604F0E8F8314640220D
:10515000284604F0B9F880220121284604F0B4F86A
:105160002678012ECED11B4D09221B4B00216A60EF
:1051700002222B600223C5F804442846EB6000237A
:10518000C4F898522961C5E9062300220023C5E925
:105190000823C5E90C2301220023C5E90A2303F0F3
:1051A00029FB044600B1FEE74FF40071284604F0E5
:1051B000B5F821468022284604F086F84FF4BA72EA
:1051C0003146284604F080F89CE700BF483B0024A5
:1051D00000000840503F002400000440D0F898022E
:1051E00008B503F09DFB032802D8024B185C08BDEC
:1051F000022008BD846601089446D0F898021A4639
:1052000008B5634603F012FF032802D8024B185C6E
:1052100008BD022008BD00BF84660108D0F89802CE
:1052200008B503F041FF032802D8024B185C08BD03
:10523000022008BD84660108D0F8980208B503F082
:10524000C3FF032802D8024B185C08BD022008BD2A
:1052500084660108D0F8980208B503F0F9FF032826
:1052600002D8024B185C08BD022008BD8466010804
:105270000A06D0F8983206D4C1EBC10103EB8101D4
:1052800091F8FE01704701F07F01C1EBC10103EB12
:10529000810191F83E007047D0F8980208B503F0FC
:1052A000AFFE032802D8024B185C08BD022008BDDF
:1052B00084660108D0F8980208B503F05DFF032862
:1052C00002D8024B185C08BD022008BD84660108A4
:1052D000D0F8980208B503F01DFF032802D8024B4E
:1052E000185C08BD022008BD84660108D0F8980249
:1052F00003F038BF122301480B807047D40000240C
:10530000122301480B807047C00000240423014889
:105310000B807047E800002410B5044C0A4604488E
:10532000214608F0CFFD204610BD00BF58430024A1
:105330008866010810B5044C0A460448214608F066
:10534000C1FD204610BD00BF5843002498660108E7
:1053500010B5044C0A460448214608F0B3FD204627
:1053600010BD00BF58430024AC66010810B5044CC2
:105370000A460448214608F0A5FD204610BD00BF9E
:1053800058430024B866010810B5044C0A46044886
:10539000214608F097FD204610BD00BF5843002469
:1053A000C8660108042301480B807047E800002408
:1053B00010B5044C0A460448214608F083FD2046F7
:1053C00010BD00BF5843002488660108464A4FF0CC
:1053D0001A0CD2F80008D2F80838A1F800C0C31897
:1053E00001D142487047180FB3F1204FD2F804188A
:1053F0004FF0000C3D4A2CBF3730303082F803C0EC
:105400004FF0000C9070C3F3036082F805C04FF0BA
:10541000000C092882F807C04FF0000C8CBF373011
:10542000303082F809C04FF0000C1071C3F3035004
:1054300082F80BC04FF0000C092882F80DC08CBF19
:10544000373030309071C3F3034009288CBF3730B8
:1054500030301072C3F3033009288CBF373030303E
:105460009072C3F3032009288CBF3730303010739B
:10547000C3F3031003F00F0309288CBF373030301B
:10548000092B90734FF0000094BF30333733B1F1E4
:10549000204FD07313744FEA11734FF000002CBFEC
:1054A00037333033507400209374C1F30363D074E6
:1054B0000020092B50754FF000008CBF373330337C
:1054C000D0751375C1F303530848092B8CBF3733CC
:1054D00030339375C1F30343092B94BF3033373313
:1054E000137600235376704700E0F11FEC00002490
:1054F000464A4FF01A0CD2F80008D2F80838A1F842
:1055000000C0C31801D142487047180FB3F1204FB3
:10551000D2F804184FF0000C3D4A2CBF3730303021
:1055200082F803C04FF0000C9070C3F3036082F860
:1055300005C04FF0000C092882F807C04FF0000C9E
:105540008CBF3730303082F809C04FF0000C10713A
:10555000C3F3035082F80BC04FF0000C092882F807
:105560000DC08CBF373030309071C3F30340092831
:105570008CBF373030301072C3F3033009288CBF32
:10558000373030309072C3F3032009288CBF373096
:1055900030301073C3F3031003F00F0309288CBFDE
:1055A00037303030092B90734FF0000094BF303308
:1055B0003733B1F1204FD07313744FEA11734FF0AA
:1055C00000002CBF37333033507400209374C1F384
:1055D0000363D0740020092B50754FF000008CBF7E
:1055E00037333033D0751375C1F303530848092B93
:1055F0008CBF373330339375C1F30343092B94BF0A
:1056000030333733137600235376704700E0F11FB1
:10561000EC00002410B5044C0A460448214608F06A
:1056200051FC204610BD00BF58430024B866010855
:1056300010B5044C0A460448214608F043FC2046B5
:1056400010BD00BF58430024AC660108D0F8C0026A
:1056500008F0AABCD0F8C00208F0BEBCD0F8C00266
:1056600008F0C6BC704700BFD0F8C00208F0ACBC60
:10567000D0F8C00208F0ACBCD0F8D00308B502F0F6
:1056800083FD032802D8024B185C08BD022008BD28
:10569000DC660108024B027853F82200704700BF15
:1056A00000670108024B427833F81200704700BFD0
:1056B000E06601088CB00A2814D8DFE800F0152352
:1056C000313F4D5B6977859306004D4BD3F8E02061
:1056D00042F48062C3F8E020D3F8E03003F4806342
:1056E0000B930B9B0CB07047454BD3F8E02042F076
:1056F0000102C3F8E020D3F8E03003F00103019386
:10570000019BEFE73E4BD3F8E02042F00202C3F8E2
:10571000E020D3F8E03003F002030293029BE1E7BC
:10572000374BD3F8E02042F00402C3F8E020D3F86E
:10573000E03003F004030393039BD3E7304BD3F82B
:10574000E02042F00802C3F8E020D3F8E03003F094
:1057500008030493049BC5E7294BD3F8E02042F0EB
:105760001002C3F8E020D3F8E03003F010030593F3
:10577000059BB7E7224BD3F8E02042F02002C3F8A4
:10578000E020D3F8E03003F020030693069BA9E75E
:105790001B4BD3F8E02042F04002C3F8E020D3F8DE
:1057A000E03003F040030793079B9BE7144BD3F8CB
:1057B000E02042F08002C3F8E020D3F8E03003F0AC
:1057C00080030893089B8DE70D4BD3F8E02042F44B
:1057D0008072C3F8E020D3F8E03003F480730993BB
:1057E000099B7FE7064BD3F8E02042F40072C3F830
:1057F000E020D3F8E03003F400730A930A9B71E7CA
:1058000000440258704700BF0F4B1B780BB90120B2
:10581000704710B504464FF47A700C4AB0FBF3F3AE
:105820001068B0FBF3F000F0C1FE0F2C00D808B1F7
:10583000012010BD002221464FF0FF3000F056FE3F
:10584000034B00201C6010BD060100245000002402
:105850000801002438B50320124D00F035FE124C2B
:1058600004F0F4FC114A12499369C3F30323CB5C9F
:1058700003F01F0320FA03F30E202B60926902F05D
:105880000F028A5C02F01F02D3402360FFF7BCFFC7
:1058900010B10124204638BD0446FFF7B3FF20466F
:1058A00038BD00BF500000245400002400440258BA
:1058B00074660108034A044B11681B780B4413609B
:1058C000704700BF1C48002406010024014B1868E3
:1058D000704700BF1C48002438B50446FFF7F6FFA8
:1058E0000546631C02D0044B1B781C44FFF7EEFFF7
:1058F000431BA342FAD338BD06010024014B1868AC
:10590000000C70470010005C704700BF806B08B54A
:10591000FFF7FAFF08BD00BF836B5A6D12F0500FFE
:105920005A6D10B51DD1196842F400725A650A68A3
:1059300012F0080FCA681BD012F4406F0DD1CA686C
:1059400094040AD45A6D22F480725A655A6DD104B7
:1059500003D45A6D42F001025A651846FDF718FD4E
:1059600010BDD2060AD4DB6CBDE81040DB6C1847D2
:105970009007E7D01846FDF70BFDF1E71846FDF755
:10598000ABFD10BD806B08B5436D43F0400343652C
:10599000836D43F004038365FDF79EFD08BD00BFE2
:1059A000F0B5002283B0019290F85020012A00F057
:1059B0001C81034601201A6883F85000946864072C
:1059C00000F18A800C68C4F31305002D40F08F802D
:1059D000C4F38464A0404D684FF01F0ED6694FEAAF
:1059E000951C30430CF00C0CD06105F01F0002F147
:1059F000300584400EFA00FE5CF8050020EA0E0037
:105A000004434CF80540906840076ED4956815F043
:105A1000080547D10C68072002F11406B94F4FEA78
:105A2000D45CC4F304540CF0040C00FA04FE88683F
:105A300000FA04F45CF8060020EA0E0020434CF85B
:105A40000600386800F07040B0F1805F00F0C5805B
:105A5000D068D668C70600F1E880C6F382064869B8
:105A6000760000FA06F60F69042F00F0C18002F1FB
:105A70006004086854F827C000F0F8400CF0004CAF
:105A800040EA0C00304344F82700487E0E690128A4
:105A900054F8260008BF4FF0004520F000400543B1
:105AA00044F826509068C40714D4CE68086806F0FD
:105AB0001807954CD2F8C050FC40C0F313070440BF
:105AC00025EA07052C43C2F8C040904CA64246D0B8
:105AD000002816DB002003E05A6D42F020025A65D0
