:020000040800F2
:1000000000000220110A00080D0A0008F14700084C
:100010000D0A00080D0A00080D0A00080000000083
:100020000000000000000000000000000D0A0008B1
:100030000D0A0008000000000D0A000875470008BE
:100040000D0A00080D0A00080D0A00080D0A000834
:100050000D0A00080D0A00080D0A00080D0A000824
:100060000D0A00080D0A00080D0A0008193F0008D3
:10007000253F0008752E0008313F00083D3F00086D
:1000800075FD0008493400080D0A00080D0A000833
:100090000D0A00080D0A00080D0A00080D0A0008E4
:1000A0000D0A00080D0A00080D0A00080D0A0008D4
:1000B000C9450008D5450008E14500087D34000821
:1000C0000D0A0008893400080D0A000825ED000813
:1000D00031ED0008A9FB0008D9FB00080DFC000861
:1000E0000D0A00080D0A0008000000000D0A0008B3
:1000F0000D0A00080D0A00080D0A00080D0A000884
:100100000D0A00080D0A0008ED4500083DED000845
:1001100041FC000875FC00080D0A00080D0A0008E3
:100120000D0A00080D0A000861ED000895ED0008B1
:10013000A9FD00080D0A00080D0A00080D0A0008B4
:1001400000000000000000000000000000000000AF
:100150000D0A00080D0A00080D0A0008A9FC000895
:10016000953400080D0A000885470008A9470008D3
:100170000D0A0008CD4700080D0A00080D0A000806
:100180000D0A00080D0A0008DDFC00080DFD00083E
:1001900049ED000855ED00080D0A00080D0A000899
:1001A0000D0A00080D0A00080D0A00080D0A0008D3
:1001B000393C00080D0A00080D0A00080D0A000865
:1001C0000D0A00080D0A000895290008A129000859
:1001D0000D0A0008AD2900080D0A00080D0A0008E4
:1001E0000D0A00080D0A00080D0A00080D0A000893
:1001F0000D0A00080D0A00080D0A00080D0A000883
:100200000D0A00080D0A00080D0A00080D0A000872
:100210000D0A00080D0A00080D0A00080D0A000862
:100220000D0A00080D0A00080D0A00080000000071
:100230000D0A00080D0A0008000000000D0A000861
:100240000D0A00080D0A00080D0A00080D0A000832
:100250000D0A00080D0A00080D0A00080D0A000822
:100260000D0A00080D0A00080D0A00080D0A000812
:100270000D0A00080D0A000841FD000800000000FA
:100280000D0A00080D0A00080D0A00080000000011
:08029000000000000D0A000847
:1002A00010B5054C237833B9044B13B10448AFF3B0
:1002B00000800123237010BD80070024000000008F
:1002C000DC6C010808B5034B1BB103490348AFF3CD
:1002D000008008BD0000000084070024DC6C0108D9
:1002E000034613F8012B002AFBD1181A0138704776
:1002F00001F0FF01102A2BDB10F0070F08D010F8D7
:10030000013B013A8B422DD010F0070F42B3F6D1DA
:10031000F0B441EA012141EA014122F007047FF0F3
:1003200000070023F0E80256083C85EA010586EA4A
:10033000010685FA47F5A3FA87F586FA47F6A5FA86
:1003400087F68EB9EED1F0BC01F0FF0102F0070292
:1003500032B110F8013B013A83EA010313B1F8D13D
:100360000020704701387047002D06BF354603381E
:10037000073815F0010F07D1013015F4807F02BF57
:10038000013015F4C03F0130F0BC0138704700BFA8
:1003900081F0004102E000BF83F0004330B54FEA36
:1003A00041044FEA430594EA050F08BF90EA020FA3
:1003B0001FBF54EA000C55EA020C7FEA645C7FEA36
:1003C000655C00F0E2804FEA5454D4EB5555B8BF59
:1003D0006D420CDD2C4480EA020281EA030382EACA
:1003E000000083EA010180EA020281EA0303362D5C
:1003F00088BF30BD11F0004F4FEA01314FF4801C2F
:100400004CEA113102D0404261EB410113F0004F40
:100410004FEA03334CEA133302D0524263EB4303F7
:1004200094EA050F00F0A780A4F10104D5F1200E95
:100430000DDB02FA0EFC22FA05F2801841F10001F0
:1004400003FA0EF2801843FA05F359410EE0A5F1C4
:1004500020050EF1200E012A03FA0EFC28BF4CF0F5
:10046000020C43FA05F3C01851EBE37101F00045AB
:1004700007D54FF0000EDCF1000C7EEB00006EEBB8
:100480000101B1F5801F1BD3B1F5001F0CD3490842
:100490005FEA30004FEA3C0C04F101044FEA445299
:1004A00012F5800F80F09A80BCF1004F08BF5FEA20
:1004B000500C50F1000041EB045141EA050130BD00
:1004C0005FEA4C0C404141EB0101013C28BFB1F512
:1004D000801FE9D291F0000F04BF01460020B1FA5D
:1004E00081F308BF2033A3F10B03B3F120020CDA30
:1004F0000C3208DD02F1140CC2F10C0201FA0CF00E
:1005000021FA02F10CE002F11402D8BFC2F1200C72
:1005100001FA02F120FA0CFCDCBF41EA0C01904028
:10052000E41AA2BF01EB0451294330BD6FEA040471
:100530001F3C1CDA0C340EDC04F11404C4F120025C
:1005400020FA04F001FA02F340EA030021FA04F36E
:1005500045EA030130BDC4F10C04C4F1200220FAC5
:1005600002F001FA04F340EA0300294630BD21FA03
:1005700004F0294630BD94F0000F83F4801306BFC9
:1005800081F480110134013D4EE77FEA645C18BFBD
:100590007FEA655C29D094EA050F08BF90EA020F54
:1005A00005D054EA000C04BF1946104630BD91EA4C
:1005B000030F1EBF0021002030BD5FEA545C05D14F
:1005C0004000494128BF41F0004130BD14F580048E
:1005D0003CBF01F5801130BD01F0004545F0FE4102
:1005E00041F470014FF0000030BD7FEA645C1ABF37
:1005F000194610467FEA655C1CBF0B46024650EA6E
:10060000013406BF52EA033591EA030F41F4002199
:1006100030BD00BF90F0000F04BF0021704730B51F
:100620004FF4806404F132044FF000054FF00001F4
:1006300050E700BF90F0000F04BF0021704730B5B5
:100640004FF4806404F1320410F0004548BF40428A
:100650004FF000013EE700BF42004FEAE2014FEADF
:1006600031014FEA02701FBF12F07F4393F07F4FBA
:1006700081F06051704732F07F4208BF704793F0BD
:100680007F4F04BF41F40021704730B54FF46074D0
:1006900001F0004521F000411CE700BF50EA0102D3
:1006A00008BF704730B54FF000050AE050EA01027C
:1006B00008BF704730B511F0004502D5404261EBEC
:1006C00041014FF4806404F132045FEA915C3FF42D
:1006D000D8AE4FF003025FEADC0C18BF03325FEACA
:1006E000DC0C18BF033202EBDC02C2F1200300FA7B
:1006F00003FC20FA02F001FA03FE40EA0E0021FAA0
:1007000002F11444BDE600BF53B94AB9002908BF3D
:1007100000281CBF4FF0FF314FF0FF3000F074B9DC
:10072000ADF1080C6DE904CE00F006F8DDF804E048
:10073000DDE9022304B070472DE9F047089D044627
:100740008E46002B4DD18A42944669D9B2FA82F284
:1007500052B101FA02F3C2F1200120FA01F10CFAC0
:1007600002FC41EA030E94404FEA1C48210CBEFBF8
:10077000F8F61FFA8CF708FB16E341EA034306FB81
:1007800007F199420AD91CEB030306F1FF3080F010
:100790001F81994240F21C81023E63445B1AA4B25D
:1007A000B3FBF8F008FB103344EA034400FB07F7FF
:1007B000A7420AD91CEB040400F1FF3380F00A8140
:1007C000A74240F207816444023840EA0640E41B35
:1007D00000261DB1D4400023C5E900433146BDE8E1
:1007E000F0878B4209D9002D00F0EF800026C5E983
:1007F000000130463146BDE8F087B3FA83F6002E9B
:100800004AD18B4202D3824200F2F980841A61EB12
:10081000030301209E46002DE0D0C5E9004EDDE730
:1008200002B9FFDEB2FA82F2002A40F09280A1EB18
:100830000C014FEA1C471FFA8CFE0126200CB1FB6D
:10084000F7F307FB131140EA01410EFB03F0884266
:1008500008D91CEB010103F1FF3802D2884200F2F3
:10086000CB804346091AA4B2B1FBF7F007FB101185
:1008700044EA01440EFB00FEA64508D91CEB040423
:1008800000F1FF3102D2A64500F2BB800846A4EB7E
:100890000E0440EA03409CE7C6F12007B34022FA69
:1008A00007FC4CEA030C20FA07F401FA06F31C4398
:1008B000F9404FEA1C4900FA06F3B1FBF9F8200CA5
:1008C0001FFA8CFE09FB181140EA014108FB0EF0EB
:1008D000884202FA06F20BD91CEB010108F1FF3A3B
:1008E00080F08880884240F28580A8F10208614447
:1008F000091AA4B2B1FBF9F009FB101144EA014155
:1009000000FB0EFE8E4508D91CEB010100F1FF34FF
:100910006CD28E456AD90238614440EA0840A0FB97
:100920000294A1EB0E01A142C846A64656D353D06D
:100930005DB1B3EB080261EB0E0101FA07F722FA91
:1009400006F3F1401F43C5E9007100263146BDE8BA
:10095000F087C2F12003D8400CFA02FC21FA03F31D
:10096000914001434FEA1C471FFA8CFEB3FBF7F09E
:1009700007FB10360B0C43EA064300FB0EF69E42C3
:1009800004FA02F408D91CEB030300F1FF382FD25C
:100990009E422DD9023863449B1B89B2B3FBF7F604
:1009A00007FB163341EA034106FB0EF38B4208D9DD
:1009B0001CEB010106F1FF3816D28B4214D9023E1E
:1009C0006144C91A46EA004638E72E46284605E73C
:1009D0000646E3E61846F8E64B45A9D2B9EB02080D
:1009E00064EB0C0E0138A3E74646EAE7204694E79D
:1009F0004046D1E7D0467BE7023B614432E73046D0
:100A000009E76444023842E7704700BFFEE700BFD1
:100A10000B480C4A904203D0121A0B4912F0AAFC60
:100A20000A480B4A904203D0121A002112F0B0FC7F
:100A300004F008F912F06AFC00F0ACF8FEE700BF21
:100A40000000002480070024146D010880070024A2
:100A5000C46A0024704700BF704700BF704700BFE2
:100A6000704700BF704700BF704700BF704700BFAE
:100A7000704700BF10B531482DED028B03F05AFED0
:100A800003462E4808EE103A03F048FE07EE900A9F
:100A9000B0EE087AB8EE488AF8EE677AC8EE278A90
:100AA000F4EEC78AF1EE10FA02DD254C237873BB11
:100AB000244C204601F0AEFE23792BB3A37A7F2B82
:100AC00022D11F4B1A7882B300221C481A7003F0FF
:100AD0001BFE1A4803F0F8FD1B4B1848196803F079
:100AE0008BFD164803F010FEDFED187AF4EEE78A6E
:100AF000F1EE10FA08DD9FED167ADFED167A164B4F
:100B0000E8EE877AC3ED007ABDEC028B10BD0B488E
:100B100003F0DAFD0C4B0948196803F06DFD074836
:100B200003F0F2FD00232370C2E7BDEC028B01222B
:100B30000248BDE810401A7003F0D4BDC00700247D
:100B4000AC070024B0070024240800249A99193F18
:100B50004D5505C20000F0420400002430B50B4D95
:100B600083B015242046013400F04AFA0346E4B26B
:100B70002846ADF8043010359FED050A019901F0C3
:100B80002FFE192CEED103B030BD00BF6408002445
:100B900000007A4400B500219FB04248012500F0D2
:100BA000EDFA002001F060FD1C2000F029FA034658
:100BB0009FED3D0A0024ADF8083002993B4801F052
:100BC0000FFE192000F01CFA03469FED370AADF81E
:100BD0000C303748039901F003FEFFF7BFFF0421F3
:100BE000304800F047FA03212E4800F023FA314B39
:100BF0004FF07C5230492B481A601D7100F016FAF4
:100C00004FF0FF322D4B05A92D48079219608DF842
:100C10002050CDE9054403F0EFFC294803F074FDB2
:100C20000F2000F0EDF9ADF81000049909A801F0CB
:100C3000C3FE04232A46234809A901F0CBFE21461E
:100C4000204802F0C1F801461648019100F00EFA62
:100C5000DFED1D0A2346224601990EA801F026FC6D
:100C60001A4B0DF1380C0DF1580ED3ED000A9FED23
:100C7000180ABCE80F00AEE80F009CE80F008EE8F1
:100C80000F00224616A9134801F024FD12489FEDDB
:100C9000130A11F0F3FC0B4802F080F8062003F071
:100CA00019FEFBE7C407002400007A449C070024D7
:100CB000B007002400080024A50D00082408002423
:100CC000C0070024DC0700246F12033B0800002447
:100CD000000000002C0800240808002400803B4786
:100CE00010B52948294C2DED028B82B001F022FD70
:100CF000B0EE408AB2EE040AB1EE488A38EE088AB5
:100D0000F0EE480A12F020F89FED217ADFED217A0B
:100D10002148E0EE077AB0EE670A00F063F900239D
:100D20001846019303E001300328019028DC04EB0E
:100D3000001001F06FFD019804EB00131A79002AEE
:100D4000F1D09B7A7F2BEED1F0EE480AB2EE040A86
:100D500011F0FAFF9FED0E7ADFED0E7A0F48E0EE0C
:100D6000077AB7EEE77A53EC172B01F06FFC0C48CB
:100D700001A900F019F90198013003280190D6DD8E
:100D800002B0BDEC028B10BD2C08002464080024C6
:100D900000409C450000C842A80800245461010896
:100DA00028080024002A75D02DE9F04F05460E468C
:100DB00090464FF0000BDFF8F890374FDFF8F4A0C3
:100DC0002DED028B83B03DE03B78002203B13A70F9
:100DD0002B68002231484FEA8B0403EB8B0300920F
:100DE0000BF1010B93ED000A00F0D8F82B682C48AA
:100DF00023448DED000A93ED000A00F0F7F82B680C
:100E0000F0EE047A2748D3ED010A60EEA70A11F04C
:100E10006FFC2B6824496A4623442348B0EE408A7D
:100E20001B680193DAF800300B6001A911F0B8FCDF
:100E3000D845D6E900322244234482ED008A83ED6E
:100E4000008A22D0FFF74CFFFFF714FE174B01A9D1
:100E50001248D3ED007AFDEEE77ACDED017A00F08D
:100E600099F8134801F0D6FC99F80A30FF2BABD162
:100E70003B78002BACD1012308483B7000F088F888
:100E800099F80A30FF2BA3D09EE703B0BDEC028B8C
:100E9000BDE8F08F704700BFA40800242808002494
:100EA000A8080024080800240008002404000024E6
:100EB0009C0700240C00002470B51F4E1F4C2048D6
:100EC00000F062F89FED1F0A30461F4D00F078F8E1
:100ED00022461E49304611F02BFD22461C491D4872
:100EE00011F026FD224629461B4811F021FD22461D
:100EF00029461A4811F01CFD22461949002011F01C
:100F000017FD00251748224617490560456105620F
:100F100011F00EFD22461549154811F009FD15483E
:100F200022461549056011F003FD22461349144875
:100F3000BDE8704011F0FCBCA808002400000024AB
:100F40002808002400803B47610A00086D0A000859
:100F5000550A0008080800249C070024B007002454
:100F6000710A0008C4070024690A0008590A000829
:100F700000080024C00700245D0A0008650A000874
:100F80002C080024704700BF14230360704700BF83
:100F9000704700BF0B680360704700BF9FED010AF8
:100FA000704700BF00000000704700BF024A0020E9
:100FB000024911F0BDBC00BF00000024850F0008ED
:100FC00010B52DED028BB0EE408A044611F05EFCA8
:100FD00004F11C00B0EE480A11F04CFC2046BDECB8
:100FE000028B10BD80ED030A11F06EBC00B583B01A
:100FF00001A98DED010A11F057FC03B05DF804FB67
:10100000202882B009D8084B03EB400213F81030B7
:10101000507843EA002002B0704701230C2043EAD5
:10102000002002B0704700BF68610108143001F071
:1010300009BA00BF38B500F1140504462DED028B46
:10104000284601F0BBF9284601F0B4F92846B0EE75
:10105000408A01F09DF9D0ED007AF8EE677A88EECB
:10106000277ABDEC028B84ED0E7A38BD143001F086
:10107000A1B900BF38B500F1140504462DED028B6F
:10108000284601F089F9284601F094F92846B0EE87
:10109000408A01F07DF9D0ED007AF8EE677A88EEAB
:1010A000277ABDEC028B84ED0E7A38BDF0B50323B0
:1010B00099B000270125129306462C4B09A81595D7
:1010C000CDE90E7340F20453ADF84030284BCDE922
:1010D0001357099301F07AFF09A802F053F800288A
:1010E00036D1244B04AF04460090CDF84230102393
:1010F000394604958DF820301F4BCDE91650CDE9C7
:1011000006506846059302F0CBF90823009A01A91E
:1011100009A8ADF804508DF8064009940295039390
:1011200000F0E4F800230EA938463024049302F0BE
:101130007FFF03224FF07E5309A906F114000B93A1
:101140000C93CDE90942049A01F0EAF819B0F0BD18
:1011500040F60132074B169704AFADF824200998EA
:10116000CDF84230179500F081F8DBE70402040463
:1011700003030001040604030704010B2DE9F043F7
:1011800004462DED028B83B0002948D0012140F2A6
:10119000011200230091ADF804208DF80630304A8A
:1011A0000126304B271D304904F12908626040F2C6
:1011B0000272A36040F60663E16004F1250926820D
:1011C000A4F8252084F82760A4F8293084F82B603F
:1011D00003F0EEFC6946054648B304F130008DF893
:1011E000066003F043FC072D34D104F114052046BA
:1011F000FFF75CFF284601F0DDF82846B0EE408A94
:1012000001F0C6F8D0ED007AF8EE677A88EE277A1A
:1012100084ED0E7A03B0BDEC028BBDE8F08340F2A2
:10122000011300918DF80610ADF80430B7E704F112
:10123000300003F01BFC3946204602F079FB48469B
:1012400001F0C4FE404601F0C1FE04F1120000F0BE
:1012500077F9CAE73946204602F06AFBC5E700BFC6
:101260000508050905070506050A060610B584B038
:1012700003460124ADF8040003A8ADF80C30ADF826
:101280000E4001F0A3FE214603A801F089FF20468D
:1012900003F020FB002103A801F082FF204603F0A9
:1012A00019FB214603A801F07BFF04B010BD00BF6D
:1012B00010B5C2F3002384B00C46017C8DF80D20DC
:1012C00043EA4402FA2402238DF80C2003AA009476
:1012D00002F07CF918B10124204604B010BD044688
:1012E0000A2003F0F7FA204604B010BD034670B59B
:1012F00043F8042B044684B007C983E80700A379A8
:1013000083B91A210B461E22FA2523742046ADF814
:101310000C20022303AA009502F058F928B10120FD
:1013200004B070BD1B210B46EDE70A2003F0D2FA92
:101330004FF4B85200950223ADF80C20204603AAC2
:10134000217C02F043F90028E9D10A2003F0C2FA17
:1013500041F2027200950223ADF80C20204603AA48
:10136000217C02F033F90028D9D10A2003F0B2FA27
:10137000042200950223ADF80C20204603AA217C0C
:1013800002F024F90028CAD10A2003F0A3FA0622A9
:1013900000950223ADF80C20204603AA217C02F020
:1013A00015F90028BBD10A2003F094FA41F2082273
:1013B00000950223ADF80C20204603AA217C02F000
:1013C00005F90028ABD10A20064603F083FA009500
:1013D000022303AA217C2046ADF80C6002F0F6F847
:1013E00000289CD1304603F075FA009522790C2331
:1013F0002046002A8DF80C3003AA4FF0020314BFD8
:10140000622142218DF80D10217C02F0DFF80028C6
:1014100085D1304603F05EFA2279D4E902310B43DC
:10142000DBB20AB943F0400362790AB143F020030A
:101430000E22FA258DF80D302046009502238DF8F6
:101440000C2003AA217C02F0C1F800287FF467AFCA
:101450000A2003F03FFA102200950223ADF80C2079
:10146000204603AA217C02F0B1F800287FF457AF90
:101470000A2003F02FFA122100950223ADF80C1078
:1014800003AA217C204602F0A1F800287FF447AF90
:101490000A2003F01FFA012209212046FFF708FF66
:1014A000003818BF01203BE7F0B5102387B0234C6C
:1014B000012200250126002702A920460195CDE939
:1014C00002234FF48052CDE904670AF001FE642044
:1014D00004F0ACF902A94FF480522046CDE904672C
:1014E00002261027CDE902670AF0F2FD032210233D
:1014F00002A92046CDE9022300230422CDE90423DA
:101500004FF480520AF0E4FD40F23223042202A993
:10151000019310232046CDE90223019A012305926D
:101520004FF4805204930AF0D3FD40F606012046A2
:101530000AF0EEFD284607B0F0BD00BFE408002425
:101540001C4B00221C494FF0400C30B5054689B0B9
:101550000220596007219A601A620124DA620A2285
:101560004FF4006EDC6006922022CDE900010420D9
:101570000821CDE9020103201021CDE90401082052
:101580006946C3E904024FF4C072181DC3E906C2DC
:101590004FF48052C3E909E20AF070FD38B92846D9
:1015A000FFF782FF003818BF012009B030BD204688
:1015B00009B030BDE008002440410052614A0021DA
:1015C000D0B513688EB00A91002B40F0B9805E4B05
:1015D00001214FF683700C2411600221D3F8D4202E
:1015E0000026032742F48052C3F8D420D3F8D42035
:1015F00002F480520092009AD3F8E02042F01002E8
:10160000C3F8E020D3F8E02002F010020192019A22
:10161000D3F8E02042F04002C3F8E020D3F8E02005
:1016200002F040020292029AD3F8E02042F008024F
:10163000C3F8E020D3F8E02002F008020392039AF6
:10164000D3F8E02042F48072C3F8E020D3F8E02021
:1016500002F480720492049AD3F8E02042F08002EF
:10166000C3F8E020D3F8E02002F080020592059A4A
:10167000D3F8E02042F02002C3F8E020D3F8E020C5
:1016800002F020020692069AD3F8E02042F004020B
:10169000C3F8E020D3F8E0300C9403F00403079380
:1016A0000323079A0B93CDE9080108A9274805F001
:1016B00043FF48F23712022308A925480C94CDE9CC
:1016C0000823CDE90A6705F037FF4CF203720223C5
:1016D00008A920480C94CDE90823CDE90A6705F054
:1016E0002BFF40F2FF62022308A91B480C94CDE9AE
:1016F0000823CDE90A6705F01FFF4FF60C7202239D
:1017000008A916480C94CDE90823CDE90A6705F02D
:1017100013FF4FF63F02022308A911480C94CDE9AC
:101720000823CDE90A6705F007FF2022022308A954
:101730000A480C94CDE90A67CDE9082305F0FCFEC0
:101740000EB0D0BDDC08002400440258001002583E
:1017500000180258000C025800200258001C0258C1
:10176000001402582DE9F04FDFF8108406460D46AC
:10177000144608F118002DED028B89B000AF02F07D
:101780004FFDD8F8183073B3D8F81C30D8F804904F
:10179000002B43690BBF4FF0080A4FF0100A4FF0BF
:1017A000020B4FF0040BB9F1000F2AD0A200EA4659
:1017B000012B02F1070222F00702ADEB020D684691
:1017C000ADEB020D694600F03F81022B00F0D680A0
:1017D000002B6FD02246C847D5462437BD46BDEC06
:1017E000028BBDE8F08FD8F81C30002BF5D0D8F86C
:1017F00004904FF0080A4FF0020B4369B9F1000F53
:10180000D4D1FB61D8F80030BB61002BE5D0D548BE
:1018100002F078FD6B46BBF1020F786108EE103ADA
:10182000FB6900F083816A465146A2EBC4029546EB
:101830006200EA46B2FBFBF2AAEBC40085460AEB63
:101840008200EE46F861ADEB010DF8690EEB820CFB
:10185000C7F810C0EC46ADEB010D00EB8201CCF8EF
:101860000400CCF8081001EB82013869E946CCF895
:101870000C1000EB8201CCF800A001EB8202C9E958
:1018800000E0C9E90212012B00F06483022B00F092
:101890006C82002B00F08081620849466046BB697B
:1018A000984718EE103A24379D46BD46BDEC028B92
:1018B000BDE8F08F002C8DD01A46D8ED0C6A9FED54
:1018C000B27A8446331D36F922E00CF1080C07EE9B
:1018D00090EA33F922E00232F8EEE77A944267EEBA
:1018E000877A67EEA67A4CED027A07EE90EAF8EE78
:1018F000E77A67EE877A67EEA67A4CED017AE2D84E
:10190000F9612246C847984ED8ED0D6A0020F96962
:101910002B1D9FED9E7A9FED9E6ADFED9E5A22E081
:10192000F4EEC67AF1EE10FAC0F2C88447F6FE7201
:10193000D1ED017A45F8202066EEA77AF4EEC77A59
:10194000F1EE10FA40F2F080F4EEC67AF1EE10FA01
:10195000C0F2D58447F6FE7243F8202002300831E9
:1019600084427FF639AFD1ED007A66EEA77AF4EEC5
:10197000C77AF1EE10FAD3D83246D9E7002C3FF4FB
:1019800029AFD8ED0C6A84469FED787A0022331D8A
:101990008E4656F822100CF1080C07EE901A53F8F8
:1019A00022100232F8EEE77A944267EE877A67EE09
:1019B000A67A4CED027A07EE901AF8EEE77A67EE17
:1019C000877A67EEA67A4CED017AE2D87146224614
:1019D000C7F81CE0C847664ED8ED0D6A0020F969CB
:1019E0002B1D9FED6A7A9FED6A6ADFF894C120E0B3
:1019F000F4EEC67AF1EE10FAC0F279843246D1EDF7
:101A0000017A45F8202066EEA77AF4EEC77AF1EE67
:101A100010FA40F28780F4EEC67AF1EE10FAC0F2C6
:101A20005E84324643F820200230083184427FF63B
:101A3000D3AED1ED007A66EEA77AF4EEC77AF1EE76
:101A400010FAD5D86246DAE7002C3FF4C3AED8EDE1
:101A50000C6A86469FED477A4FF0000C331D56F80E
:101A60002C200EF1080E82F40002A2F5000207EE0F
:101A7000902A53F82C200CF1020CF8EEE77A82F44D
:101A800000026445A2F5000267EE877A67EEA67A47
:101A90004EED027A07EE902AF8EEE77A67EE877A43
:101AA00067EEA67A4EED017AD9D8F9612246C84789
:101AB000314ED8ED0D6A0020F9692B1D9FED337A68
:101AC0009FED336ADFF8BCC01FE0F4EEC67AF1EE9A
:101AD00010FAC0F2FC833246D1ED017A45F820209D
:101AE00066EEA77AF4EEC77AF1EE10FA18D9F4EEA2
:101AF000C67AF1EE10FAC0F2DA83324643F82020BB
:101B00000230083184427FF667AED1ED007A66EE8E
:101B1000A77AF4EEC77AF1EE10FAD6D86246DBE780
:101B20006246EBE762467DE7324615E7A100D646FE
:101B30006208073121F00701ADEB010DEA46ADEB7C
:101B4000010D6946ADEB0E0D0AEB8200EC46ADEBE4
:101B50000E0D01EB8202F861E946CCE900A0C9E96B
:101B6000001290E6340900240280FFFF00000030DC
:101B70000082FF7F0000003482FF7F0018090024EC
:101B8000007E00807E0080FF0000003804FF7FBFE1
:101B900004FF7F3F00FEFF46002C00F0C982BBF12E
:101BA000020FD8F8242000F0FA827969C7F804906F
:101BB00002EB810E5FED0C5A8A00DCF808100EF182
:101BC00004007A611A46DCF80C303B61331DD7F80B
:101BD00010903D61FD69C7E902CB8C46834636F91A
:101BE0002210D8ED0C7A06EE101A33F9221006EE08
:101BF000901A3EF92210B8EEC66A07EE101AF8EEF7
:101C0000E66A3BF92210B8EEC77A26EE256A66EE40
:101C1000A56A27EE257A26EE276A66EEA76A27EEE2
:101C2000277A07EE901A51080232F8EEE77A0AEBAB
:101C30008100944280ED006A05EB810067EEA57A91
:101C4000C0ED006A0CEB810009EB810180ED007AA8
:101C500098ED0C7A67EE877AC1ED007ABFD8D7F895
:101C600004903D69D7E902CB60466208BB694946EA
:101C70009847D8F82C307A69D8ED0D6A1A441FEDD0
:101C80003D7A1FED3D6A2B1D904602F1040A5FED7F
:101C90003F5A0022A84ED9E900EC51E0F4EEC67A92
:101CA000F1EE10FAC0F2C78247F6FE7045F8220046
:101CB0000CEB0100D0ED007A66EEA77AF4EEC77A5D
:101CC000F1EE10FA4BD9F4EEC67AF1EE10FAC0F24A
:101CD000BA8247F6FE70BBF1020F43F822002BD008
:101CE000D9F808000844D0ED007A66EEA77AF4EE41
:101CF000C77AF1EE10FA36D9F4EEC67AF1EE10FAA0
:101D0000C0F2CD8247F6FE7048F82200D9F80C00E8
:101D10000144D1ED007A66EEA77AF4EEC77AF1EECF
:101D200010FA1ED9F4EEC67AF1EE10FAC0F2AF82C4
:101D300047F6FE714AF82210023294427FF6B1ADA6
:101D400051080EEB81008900D0ED007A66EEA77A8B
:101D5000F4EEC77AF1EE10FAA0D83046A6E7304686
:101D6000B9E73146E6E73046CEE7002C00F0E081E7
:101D7000BBF1020FD8F8243000F0E1817A69DCF879
:101D8000081003EB820EC7F804909300DFED6B5A46
:101D90000EF1040000227B61DCF80C303B61331D46
:101DA000D7F810903D61FD69C7E902CB8C468346A8
:101DB00056F82210D8ED0C7A07EE101A53F82210BC
:101DC000B8EEC76A07EE101A5EF82210F8EEC76A7E
:101DD00007EE101A26EE256A5BF82210B8EEC77AD5
:101DE00066EEA56A26EE276A27EE257A66EEA76AD2
:101DF00027EE277A07EE901A51080232F8EEE77ABA
:101E00000AEB8100944280ED006A05EB810067EEE9
:101E1000A57AC0ED006A0CEB810009EB810180ED31
:101E2000007A98ED0C7A67EE877AC1ED007ABFD818
:101E3000D7F804903D69D7E902CB60466208BB69D8
:101E400049469847D8F82C307A69D8ED0D6A1A447B
:101E50009FED3E7A9FED3E6A131D9246DFF8E4C087
:101E60000022FB612B1D364ED9E9008E4EE0F4EEC8
:101E7000C67AF1EE10FAC0F2FC81304645F8220035
:101E80000EEB0100D0ED007A66EEA77AF4EEC77A89
:101E9000F1EE10FA49D9F4EEC67AF1EE10FAC0F27A
:101EA000EF813046BBF1020F43F822002AD0D9F867
:101EB00008000844D0ED007A66EEA77AF4EEC77AFF
:101EC000F1EE10FA35D9F4EEC67AF1EE10FAC0F25E
:101ED000C98130464AF82200D9F80C000144D1EDFE
:101EE000007A66EEA77AF4EEC77AF1EE10FA1ED900
:101EF000F4EEC67AF1EE10FAC0F2AD813146F8691F
:101F000040F82210023294427FF6CBAC510808EB25
:101F100081008900D0ED007A66EEA77AF4EEC77AE8
:101F2000F1EE10FAA3D86046A8E76046BAE761462A
:101F3000E5E76046CEE700BF0280FFFF000000300B
:101F40000082FF7F007E00800000003404FF7FBF1E
:101F500004FF7F3F002C00F0EB807A690021D8F865
:101F60002430C7F8109003EB820ED7F81C90930032
:101F7000FD610EF104021FED0C6A7B61331D1546F5
:101F800056F821204808D8ED0C6ABBF1020F82F404
:101F90000002A2F5000207EE902A53F8212082F4F5
:101FA0000002B8EEE77AA2F5000227EE067A07EE05
:101FB000902A0AEB8002F8EEE77A27EE267A67EE9F
:101FC000867A82ED007A09EB80024FEA800067EEA4
:101FD000A67AC2ED007A27D05EF8212082F40002B2
:101FE000A2F5000207EE902A55F8212082F40002A3
:101FF000B8EEE77AA2F5000227EE067A07EE902AFD
:10200000DCF80820F8EEE77A024427EE267A67EE3D
:10201000867A82ED007A98ED0C7ADCF80C2067EE77
:10202000877A0244C2ED007A02318C42A8D8D7F8F0
:10203000109060466208BB694946FD699847D8F828
:102040002C307A69D8ED0D6A1A441FED407A1FEDE5
:10205000406A131D9246DFF8C4C20022FB612B1DAB
:10206000AB4ED9E9008E4EE0F4EEC67AF1EE10FAEE
:10207000C0F2C580304645F822000EEB0100D0EDDD
:10208000007A66EEA77AF4EEC77AF1EE10FA49D933
:10209000F4EEC67AF1EE10FAC0F2BF803046BBF122
:1020A000020F43F822002AD0D9F808000844D0EDE6
:1020B000007A66EEA77AF4EEC77AF1EE10FA35D917
:1020C000F4EEC67AF1EE10FAC0F2AE8030464AF86D
:1020D0002200D9F80C000144D1ED007A66EEA77A0F
:1020E000F4EEC77AF1EE10FA1ED9F4EEC67AF1EEEC
:1020F00010FAC0F28B803146F86940F822100232A3
:1021000094427FF6CEAB510808EB81008900D0EDF8
:10211000007A66EEA77AF4EEC77AF1EE10FAA3D849
:102120006046A8E76046BAE76146E5E76046CEE765
:10213000224649466046BB699847FFF7B2BBC7F8DD
:1021400010B0002298ED0C6A331DDFED726AD7F8EB
:102150001CB0786956F8221007EE901A53F8221036
:10216000B8EEE77A07EE901A51080232F8EEE77AF5
:1021700027EE267A0AEB810E94420BEB810167EE83
:10218000A67A27EE067A67EE867A8EED007AC1EDA2
:10219000007ADFD88300D7F810B07B614DE61A468D
:1021A000C7F810B098ED0C6A331DDFED5B6AD7F805
:1021B0001CB0786936F9221007EE101A33F9221094
:1021C00007EE901AB8EEC77A51080232F8EEE77AB5
:1021D00027EE267A0AEB810E94420BEB810167EE23
:1021E000A67A27EE067A67EE867A8EED007AC1ED42
:1021F000007ADFD88300D7F810B07B6134E5F0EEC9
:10220000675AFEEEE45A15EE900A34E7F0EE675A8C
:10221000FEEEE45A15EE901A6EE7F0EE675AFEEE07
:10222000E45A15EE900A3AE7F0EE675AFEEEE45AE9
:1022300015EE900A4BE767EEA57AFDEEE77A17EE0A
:10224000900A00B232E567EEA57AFDEEE77A17EE66
:10225000900A00B23FE5F0EE675AFEEEE05A15EE46
:10226000901A4CE6F0EE675AFEEEE05A15EE900A30
:1022700030E6F0EE675AFEEEE05A15EE900AFDE504
:10228000F0EE675AFEEEE05A15EE900A0AE667EEA7
:10229000A57AFDEEE77A17EE901A09B24AE567EEE5
:1022A000A57AFDEEE77A17EE900A00B22CE5F0EE83
:1022B000675AFEEEE45A15EE902A1FE467EEA57AFF
:1022C000FDEEE77A17EE902A12B2FFF731BBF0EE7F
:1022D000675AFEEEE45A15EE902AFFF7FDBBF0EECA
:1022E000675AFEEEE05A15EE902AFFF79BBBF0EE20
:1022F000675AFEEEE05A15EE902AFFF780BB67EEB4
:10230000A57AFDEEE77A17EE902A12B2FFF724BB0A
:1023100082FF7F0000000030000000387E0080FF58
:1023200030B5184C154685B0046004F1080EEC4633
:102330000FC98EE80F00D4ED047AF5EEC07A8CE870
:102340000F00F1EE10FA1ADDB7EE006A94ED057A8F
:1023500027EE277AC6EE276A84ED0D7AC4ED0C6A63
:102360006DB1204640F8185F01F05AFF0649036935
:102370000020064A2162A262E36005B030BD012060
:1023800005B030BD180900240020003000000030E6
:1023900000680830704700BFB1F5807F03680A46C7
:1023A00028BF4FF48072B1F5807F9A6094BF0020FF
:1023B000012070470068183001F092BF70B50468C2
:1023C0008AB0A369E160CBB104F11805284601F099
:1023D00027FF8446EE46E668BCE80F00AEE80F0033
:1023E000BCE80F00AEE80F009CE803008EE8030095
:1023F00069462846049601F01BFEF8B9E069D8B199
:1024000004F11C05284601F00BFF8446EE46E46803
:10241000BCE80F00AEE80F00BCE80F00AEE80F000C
:102420009CE803008EE8030069462846049401F006
:10243000FFFD003818BF01200AB070BD01200AB0AE
:1024400070BD00BF30B5046883B00D46E3694BB181
:10245000A3680020E26A616A9B00009004F11C00FE
:1024600001F0E0FEA3680748A26A9B00216A009081
:1024700004F1180001F0D6FE0020C4E9005003B0BA
:1024800030BD00BF6517000810B4074B4FF07E51F8
:1024900030240022032019619C60D8605DF8044B51
:1024A0005961C3E90622704718090024F6EE007A44
:1024B0009FED166A20EE207A0160F7EE006A80ED4B
:1024C000036A80ED020A27EE277AC6EE877AF4EED9
:1024D000E67AF1EE10FA11DDF0EE667A4FF07E51F9
:1024E0004FF0000C02760022C0ED017AC0F814C053
:1024F000016143768276C0ED070A7047F4EEC67A32
:10250000F1EE10FAEAD5F0EE467AE7E700000000B7
:102510000268037E128807EE902AFBEEC87A1BB190
:10252000B7EE007A77EE677AD0ED056A90ED047A1F
:1025300077EEE67A437E67EE877A0BB1F1EE677A43
:1025400090ED030A90ED017A77EEC07AA7EE270AA4
:1025500080ED030A704700BF704700BFF8B5134F06
:102560003C687F2C07D98023114A42F224411C4643
:102570003B60A2F87E100F4D2B68012B0AD90C4E40
:102580000D4D22463146284600F0FAF90028F8D1D0
:102590003860F8BD22460649074800F0F1F90028E6
:1025A000F7D12B68386001332B60F8BD5409002443
:1025B0005809002450090024D809002430B4154CCF
:1025C0002168F1B14B1E144DE81810F801298C4612
:1025D00019460A2A01D00D2A02D14BB1013BF4E77A
:1025E0000CF102037F2B10D98023236030BC70478D
:1025F0000122022323600D200A236854AB5430BC0F
:10260000704701220223044DF4E70CF101026146F8
:10261000F0E700BF540900245809002410B5094C04
:1026200002460B46084821680844C1F1800111F0B8
:102630001BFC236818442060FFF7C0FFFFF78EFFE4
:1026400010BD00BF54090024580900240FB400B580
:1026500083B004A951F8040B0191FFF7DFFF03B029
:102660005DF804EB04B0704710B5044600210A4839
:1026700000F000F9002C094B14BF02220022084888
:102680001A60FFF7E3FF0748FFF7E0FF0A20BDE805
:10269000104002F01FB900BFD809002450090024DF
:1026A000AC610108BC610108064A0749074808B542
:1026B00010F03EF9034A04490548BDE8084010F00F
:1026C00037B900BF0000002459250008D8090024AC
:1026D000DC090024DFED167A8C46B4EE670A10B5EB
:1026E00004468646F1EE10FA2DED028B80ED080AC5
:1026F00048BFB0EE670AC0ED090AB0EE608A80F804
:102700003420BCE80F00AEE80F009CE80F008EE814
:102710000F0010F0B5FAF0EE407AB0EE480AC4EDC2
:102720000A7A10F0ADFA84ED0B0ABDEC028B10BDF5
:1027300095BFD63390F8343010B50446032B4BD8F0
:10274000DFE803F03B2A1502FFF7E2FE60EE006AC5
:10275000D4ED087A94ED097A26EE800A37EE677A8E
:10276000E0EE077AC4ED0C7AB0EE670A10BDFFF711
:10277000CFFE94ED0A7AD4ED0B7A77EEC77AA0EE0D
:10278000277AB0EE470A10F009FAF0EE407A84EDAD
:102790000C0AB0EE670A10BDFFF7BAFED4ED087A56
:1027A00094ED097A20EE000A37EE677AE0EE077AB8
:1027B000B0EE670AC4ED0C7A10BDFFF7A9FED4EDA8
:1027C000087A94ED097A37EE677AE0EE077AB0EE90
:1027D000670AC4ED0C7A10BDD0ED0C7AC4E700BFD7
:1027E00070B5044682B0C1F30726CDB2ADF804102F
:1027F00002F06EF84FF480724FF001232060A01DAC
:10280000A571A280E671A36002B0BDE8704000F03F
:10281000DDBB00BF38B5044602F05AF80022236839
:102820002271834210D00122A57AE37A954020607C
:102830002271A01D6DB243B900F0A4FC40B2284340
:10284000C0B27F28A0720AD038BD00F09BFCB0FA5D
:1028500080F040092843C0B27F28A072F4D102F072
:1028600037F807EE900AF8EE677AC4ED037A38BDC0
:10287000704700BF012910B506D0022915D051B10B
:10288000BDE8104006F03ABD0A46344834490BF022
:102890008DF9E8B1FEE7334B0A46334C33493448EF
:1028A0001C600BF083F968B1FEE701222C492B482C
:1028B0000BF07CF900B1FEE72E4928480BF098F99F
:1028C000C0B1FEE72B492A480BF092F960B1FEE750
:1028D000284922480BF08CF900B1FEE726491F4831
:1028E0000BF014F908B3FEE7244921480BF00EF968
:1028F000A8B1FEE7204919480BF008F900B1FEE73E
:1029000016480BF08BF9024640B9164B164C174986
:1029100017481C600BF04AF968B1FEE7FEE714485F
:102920000BF07CF90028ABD0FEE70C480BF076F9F1
:102930000028A5D0FEE70F490D480BF059F900B16A
:10294000FEE70E490A480BF0E1F800B1FEE708483F
:102950000BF064F9002893D0FEE700BF7C0C002444
:10296000AC000024180F00247128000890000024F7
:10297000E0090024140100247000002460000024F9
:10298000084691B208B502F04DFA003818BF012090
:1029900008BD00BF014805F08FBF00BF603B0024A9
:1029A000014805F089BF00BF603B0024014805F0E5
:1029B00083BF00BF603B002482B04FF0000C0323B4
:1029C000ADF80410BDF8042080F810C002804380E8
:1029D00002B070472DE9F04FBE4E00258FB0BE4CBF
:1029E000037006F1400342600746019288462022A8
:1029F00029463046C4F85831C4F85461CDE903552E
:102A0000CDE90555CDE90755CDE90955CDE90B557A
:102A100010F0BEFC2022294604F59970C4F821511B
:102A2000C4F82551C4F82951C4F82D5110F0B0FC58
:102A3000019B84F8385284F820317A68002A5FD0EC
:102A40002B464146B64604F5907599464FF0010A6B
:102A500003EB0310D1F800B0D1F804800133D1F8B2
:102A600008C02218CE6844F800B0C2F80480C2F84A
:102A700008C0D660087C2EF8029B10740A7C05F80A
:102A8000012F002A69D07A68113184F838A29A425D
:102A9000DED84FF4802291489DF8043008214FF091
:102AA00000084FF00009C4F874310023C4E957024C
:102AB0000122C4F8643184F87031C4E95A2194F8D1
:102AC0003812C4E9608981B3C4F88821002284F8EF
:102AD000713184F878313B78C4E96322A3B30122D1
:102AE00000200121013B84F89421C4E96801082BEE
:102AF0002CD8DFE803F0ABB0B5BABFC4C9CFD6005D
:102B00009DF804300121C4F86421C4F874314FF4F5
:102B1000802384F87021714AC4E9572308230022D6
:102B2000C4E95A130023C4E960230123002284F876
:102B30007131002384F878310323C4F888313B785D
:102B4000C4E96322002BCAD184F89431644803F0AD
:102B5000A5FA034638B1FFBEFEE77A6811319A4202
:102B60003FF676AF95E703A95D48039303F0F4FBC6
:102B70000546002868D1022240F2FF73CDE9082300
:102B800000230422CDE90A2394F82031002B00F021
:102B9000D5804FF0060921E0022B00F08980012B3F
:102BA00040F0C4809AF80130012B00F0C180002B66
:102BB0004C4B18BF002306A94948CDE9063902F05D
:102BC00099FE002840F0BF80013594F82031EDB225
:102BD000AB4240F2B380444B53F825902FB207EB41
:102BE000071704EB070A504600F0F0F905EB051350
:102BF00023441B7C042B7DDC022B00F3918000F02E
:102C00008D806319002283F81021E35D002BC3D16E
:102C10009AF80130062B00F08580072B00F08A809F
:102C2000022B00F09680032B00F09580002B00F023
:102C30009680012B00F09180042B00F09280052BF0
:102C40002A4B18BF0023B6E7FFBEFEE7032240234E
:102C5000C4E966237AE707226023C4E9662375E79F
:102C60000F228023C4E9662370E71F22A023C4E952
:102C700066236BE73F22C023C4E9662366E77F2211
:102C8000E023C4E9662361E7FF224FF48073C4E9BF
:102C900066235BE740F2FF124FF49073C4E96623AA
:102CA00054E740F2FF324FF4A073C4E966234DE7C6
:102CB0009AF80130042B37D0052B3DD0002B40D0A3
:102CC000012B42D0022B42D0032B094B18BF00230B
:102CD00071E700BF00400030200F002400200240B8
:102CE0007C1000240002B025CC6101080000B84F20
:102CF0000020903603233E1D04EB05084FF0000B27
:102D0000264488F8103130460BF1010B00F05EF9D3
:102D100098F8103104365B45F5DC76E70123EAE7E5
:102D20000223E8E7104B46E7104B44E7002342E755
:102D30000F4B40E70F4B3EE70F4B3CE70FB0BDE8B2
:102D4000F08F0E4B37E7FFBEFEE70D4B33E70D4B21
:102D500031E70D4B2FE70D4B2DE70D4B2BE70D4BBF
:102D600029E70D4B27E700BF0800900C1000C010AA
:102D70002000F0148000501D000180210004002A72
:102D80000008302E001060320040C03A0080F03E53
:102D900000005247000021430000844B38B5094C25
:102DA00040F2FF724FF0011104F5AE75284603F0B2
:102DB00081FA94F82021D4F854112846BDE838400F
:102DC00002F0ECBF200F0024034B0F29D3F854016D
:102DD00098BF00EB41007047200F0024214B026890
:102DE0009A4200D07047204A00232048D2F8D810D9
:102DF00030B51F4C41F0200183B0C4F8C001092058
:102E000004F5E075C4E971034FF48060C2F8D8108E
:102E1000D2F8D8204FF40061C4E9733094F8380236
:102E200002F02002C4F8D4114FF4005198420192EC
:102E30002846C4F8D811C4E97833019B14BF002395
:102E40004FF48073C4F8DC3103F0ACFC08B1FFBE72
:102E5000FEE704F5AE73C4F8A851C4F8F83103B026
:102E600030BD00BF00200240004402584000024034
:102E7000200F0024014804F00DB800BFE01000242A
:102E800002682DE9F84F4B4B9A4201D0BDE8F88F0C
:102E9000494D95F83832002BF8D095F82031002BA9
:102EA00077D0002405F10C0905F5997605F59077A2
:102EB000A04613E003F0010117F811BCA9F10800C6
:102EC00000F06EF9BBF1010F25D895F820310134DF
:102ED00009F111090236A2B293422BD917F8012F3A
:102EE000002AF4D0D5F854310021327833F8140098
:102EF000D5F8583103EB041323F81200338801335B
:102F00009BB233805FFA83FA3A789A42D2D88A46E3
:102F1000A6F80080D0E7CAF34001A9F1040000F050
:102F20003FF9BBF1020FCAF38001CED0484600F052
:102F300037F9CAE7002395F8380220490922984258
:102F4000C5F8C8314FF48060C5F8C011C5F8C42178
:102F50004FF400614FF40052C5F8CC3108BF4FF474
:102F60008073C5F8D821C5E9740100221448C5E969
:102F70007732C5F8E42103F015FC08B1FFBEFEE787
:102F800095F82021D5F854110E48BDE8F84F02F00D
:102F900005BF0A4909224FF48060C5F8C831C5E968
:102FA00070124FF400614FF40052C5E97330C5E967
:102FB0007512DAE700200240200F00244000024092
:102FC000E01000247C100024704700BF8378022B9F
:102FD00030B504468FB037D0032B33D0012B31D01E
:102FE00000230A93E378012B2AD0022B28D0002358
:102FF0000B93002320460C9302F0F6FA0546204678
:1030000002F0FAFA23780990082B13D8DFE803F0CE
:103010001F3245586B7E91A40500594BD3F8E02030
:1030200042F48072C3F8E020D3F8E03003F48073F8
:103030000893089B09A9284604F07EFA0FB030BD1A
:103040000B93D6E70A93CDE711230A93CAE74C4BBB
:1030500009A92846D3F8E02042F00102C3F8E02095
:10306000D3F8E03003F001030093009B04F064FA0E
:103070000FB030BD424B09A92846D3F8E02042F0FA
:103080000202C3F8E020D3F8E03003F0020301931A
:10309000019B04F051FA0FB030BD394B09A9284605
:1030A000D3F8E02042F00402C3F8E020D3F8E03087
:1030B00003F004030293029B04F03EFA0FB030BD0C
:1030C0002F4B09A92846D3F8E02042F00802C3F8A4
:1030D000E020D3F8E03003F008030393039B04F0EF
:1030E0002BFA0FB030BD264B09A92846D3F8E020B3
:1030F00042F01002C3F8E020D3F8E03003F01003F0
:103100000493049B04F018FA0FB030BD1C4B09A9BE
:103110002846D3F8E02042F02002C3F8E020D3F89C
:10312000E03003F020030593059B04F005FA0FB08F
:1031300030BD134B09A92846D3F8E02042F04002E5
:10314000C3F8E020D3F8E03003F040030693069B79
:1031500004F0F2F90FB030BD094B09A92846D3F8A5
:10316000E02042F08002C3F8E020D3F8E03003F022
:1031700080030793079B04F0DFF90FB030BD00BF59
:103180000044025838B5054602F02EFA0446284697
:1031900002F032FA01462046BDE8384004F0D4BBC4
:1031A00070B506460D4602F01FFA0446304602F09E
:1031B00023FA2A1E0146204618BF0122BDE87040AE
:1031C00004F0C8BB0023122270B586B0CDE90223FB
:1031D00004930368032B01D804230593061D841D63
:1031E000304602F001FA0546304602F005FA034681
:1031F00001A92846019304F09FF9204602F0F4F952
:10320000034620461C4602F0F7F901A90346204672
:10321000019304F091F906B070BD00BF634A0368E2
:10322000934210B58CB028D0614A934258D0614A7D
:10323000934200F09480604A934201D00CB010BDDC
:103240005E4C5F48D4F8E03043F00203C4F8E0304D
:10325000D4F8E03003F002030A930A9BFFF7B2FFB1
:10326000D4F8F43043F08003C4F8F430D4F8F430E8
:1032700003F080030B930B9BE0E7504C5148D4F8CC
:10328000E03043F00203C4F8E030D4F8E03003F05B
:1032900002030193019BFFF795FFD4F8E830002269
:1032A0001F2043F400131146C4F8E830D4F8E83086
:1032B00003F400130293029BD4F8D83043F00103C7
:1032C000C4F8D830D4F8D83003F001030393039B3B
:1032D00003F0B6F81F200CB0BDE8104003F0EEB8C4
:1032E000364C3948D4F8E03043F08003C4F8E0307D
:1032F000D4F8E03003F080030493049BD4F8E0306A
:1033000043F00203C4F8E030D4F8E03003F00203E5
:103310000593059BFFF756FFD4F8E83000222120E3
:1033200043F480031146C4F8E830D4F8E83003F4DD
:1033300080030693069BD4F8D83043F00103C4F809
:10334000D830D4F8D83003F001030793079B03F07B
:1033500077F821200CB0BDE8104003F0AFB81B484F
:10336000FFF730FF154B00224820D3F8E840114604
:1033700044F40004C3F8E840D3F8E84004F400043F
:103380000894089CD3F8D84044F00104C3F8D8400E
:10339000D3F8D83003F001030993099B03F050F8E8
:1033A00048200CB0BDE8104003F088B8005400403D
:1033B00000580040005C0040001C005800440258C7
:1033C000E813002460110024381200241013002494
:1033D0002DE9F0431A4B87B000254FF010099E46A7
:1033E000EC46184BFF22E04667461A700EF11806AD
:1033F0000EF13004CDE90055CDE90255ADF800904D
:10340000BCE80F00CDE90455AEE80F009CE80300CE
:103410000095ADF800908EE80300B8E80F000FC6E5
:103420009CE803000095ADF8009086E803000FCFFC
:103430000FC49CE8030084E8030007B0BDE8F083F4
:10344000100000245C11002410B5EFF3108472B654
:10345000084B1A78120602D504B962B610BD1B7863
:10346000D82205485BB202FB0300143003F012FDC2
:10347000F2E700BF5C11002460110024014805F050
:1034800001B900BFEC110024014805F0FBB800BFF2
:10349000C4120024014805F0F5B800BF9C130024B5
:1034A0002DE9F0430F68D8243F4D85B007FB04F4A5
:1034B000032F05EB0403036040DCCB680E46012BB1
:1034C0003CD84DD04FF0D808B646DFF8FC9008FB4A
:1034D0000758BEE80F00C446ACE80F00DEF8003025
:1034E0000DF1100ECCF80030D8F808C099E80F00A4
:1034F0000EE90F000EEB8703BCF1010F53F8103CEF
:10350000C8F88C3031D0BCF1020F42D0BCF1000FB2
:1035100035D0317C8C34D823002201202C4403FB8D
:1035200007534900C3E92602C3F894102046C3E9B3
:103530002822C3E92A2204F097FE18B1012005B021
:10354000BDE8F0830146204605F0A8F80028F5D133
:103550000146204605F0CCF8003818BF0120EEE700
:103560000B7C103B672BADD9E8E701F01FFB0F4B3D
:1035700098420CBF0E4B0F4BC8F89030C9E701F0D2
:1035800015FB0A4B98420CBF0B4B0C4BC8F8903004
:10359000BFE701F00BFB054B98420CBF084B094BF2
:1035A000C8F89030B5E700BF60110024000E27076F
:1035B0002D0FB0303211D0205F4390608A62E0302E
:1035C000200BA0101A098010206101082DE9F0419C
:1035D000D0F8008082B00D4617461E4608F18C04D4
:1035E000204605F057F82028FAD1D8F80C3073B9E6
:1035F0006D002046089C33463A46A9B2009404F078
:1036000089FE003818BF012002B0BDE8F081089B98
:1036100032463946204604F051FFF2E7044B1022AF
:103620001A7483F8E82083F8C02183F89822704741
:103630006011002430B5002395B04FF4807106224C
:1036400004460B9306921393CDE90C13CDE90E3388
:10365000CDE9113301F0ACFA07282BD004F11005A5
:1036600041F2883206A9284605F094FF28B10123CB
:10367000184684F85C3015B030BD0222022306A93A
:103680002846CDE9002310220123CDE902230022A0
:103690004FF48003CDE9042305224FF08073069296
:1036A0006A460F9341F2883306F0E0F80028DED135
:1036B00015B030BD0323012084F85C3015B030BD57
:1036C00070B50023A4B04FF080724FF480750446AB
:1036D000ADF806300D93CDE910320122CDE90E533D
:1036E000CDE91223CDE91433002943D0F02300F1B2
:1036F000100508AEADF80630C02341F288323146DD
:103700002846089305F046FF28B10123184684F89F
:103710005C3024B070BD41F288320DF106012846BC
:1037200005F0A2FF03460028EFD105224FF4807177
:103730001E93284616924FF080721B9321931F927E
:1037400002AA9FED1F7BCDE91C13CDE922338DED3D
:10375000027B9FED1D7B41F2883316A98DED047B22
:103760009FED1B7B8DED067B06F080F80028CCD109
:1037700024B070BD00F1100508AE612341F288321B
:1037800031462846089305F005FF0028BDD141F2D7
:1037900088320DF10601284605F0E4FF0028B4D177
:1037A000BDF80630204623F0780343F04003ADF81F
:1037B0000630FFF73FFF00289ED0A6E7AFF300805A
:1037C00000000000010000001000000001000000E7
:1037D00000000000000040002DE9F04F00234FF4EE
:1037E000807501264FF0807804462DED028BABB03A
:1037F0008DF8073013932193299314950E96CDF8E5
:103800005C80CDE91533CDE91863CDE91A33CDE9F4
:103810002253CDE92433CDE9273306231C9301F04D
:10382000C7F9072808D004F1100741F288321CA913
:10383000384605F0AFFE40B10123184684F85C30ED
:103840002BB0BDEC028BBDE8F08F4FF0020A4FF0B9
:10385000020B4FF0050941F2883308AA1CA938462B
:10386000CDF89480CDF870909FED2D8BCDE908AB0D
:103870004FF0000A4FF4800B8DED0A8BCDE90CABB5
:1038800005F0F4FF0028D7D141F2883238460EA95E
:1038900005F080FE0028CFD1402341F288320DF19F
:1038A000070138468DF8073005F0DEFE0028C3D149
:1038B00041F288330EA902AA3846CDF83890CDF8E7
:1038C0005C809FED197B8DED048BCDE906AB8DED12
:1038D000027B05F0CBFF03460028ADD1CDF87090F8
:1038E0004FF00109CDF894804FF00008219308AA09
:1038F00029931CA938462295CDE92333CDE92733F6
:1039000041F288338DED0A8BCDE90CABCDE9088906
:1039100005F0ACFF002893D0304684F85C608FE758
:103920001000000001000000400000004000000006
:103930002DE9F043624CA3B00D46046001F038F964
:10394000072800F0A980286823466968AA6807C389
:103950001E46AB8926F8043B3046257B677B05F085
:10396000FBFDE0B9574B012D4FF00108E0612361E9
:1039700014BF4FF480134FF40003C4E9058893FA91
:10398000A3F3B3FA83F34FF48079013BC4F8249096
:10399000C4E90B003046236205F072FD38B1012204
:1039A000134684F85C20184623B0BDE8F0836623F4
:1039B0000B90139041F2883206A90693CDE90C9042
:1039C000CDE90E00CDE91100304605F0E3FD0028F9
:1039D000E5D1992341F2883206A93046069305F0D5
:1039E000D9FD0028DBD105231C9019906A46149359
:1039F0004FF08073219014A91D9341F288339FEDFD
:103A00002A7BCDE91A90CDE91F008DED007B9FED5B
:103A1000287B30468DED027B9FED277B8DED047B6F
:103A200005F024FF0028BAD129462046FFF748FEBA
:103A30000028B4D12046FFF7CFFE03460028AED1C0
:103A4000002FB0D1189330460027002606AA14A9EB
:103A5000CDF86890CDE91F33EB2314934FF4406306
:103A60001B934FF4005317934FF440431C93A02330
:103A70001693062319934FF0805321934FF0407310
:103A8000CDE906671D9305F069FF034600288AD03B
:103A9000434684F85C8086E701230322184684F8B5
:103AA0005C2023B0BDE8F0830000000001000000AE
:103AB00010000000010000000000000000004000B5
:103AC000C0140024005000522DE9F04F8FB0414B3C
:103AD0000024026800AF9A427C63C7E90944C7E941
:103AE0000B4403D03C37BD46BDE8F08F3A4B40F65F
:103AF00009213A48EB46D3F8D42007F11C0607F118
:103B0000220A4FF0020942F480424FF00308C3F842
:103B1000D420D3F8D42002F48042BA60BA68D3F833
:103B2000E02042F04002C3F8E020D3F8E02002F0A9
:103B30004002FA60FA68D3F8E02042F02002C3F8AD
:103B4000E020D3F8E02002F020023A613A69D3F88D
:103B5000E02042F01002C3F8E020D3F8E02002F0A9
:103B600010027A617A69D3F8E02042F00202C3F8C9
:103B7000E020D3F8E030F86103F002033984BB6140
:103B8000174B7B60BB697B6853F8040F7B6001F0C7
:103B90002BFD7B680546186801F02EFD16F8013BE9
:103BA000786207F124012846C7F830807B63C7E9B3
:103BB0000A9403F0C1FC5645E5D100225C20114671
:103BC00002F03EFC5C2002F079FC3C37DD46BD464D
:103BD000BDE8F08F00500052004402580A0A09095B
:103BE0001C150024114B02689A4200D07047104AFD
:103BF00070B5D2F8D4300F4C23F4804304F118068A
:103C0000C2F8D43054F8040F01F0EEFC05462068E9
:103C100001F0F2FC0146284603F0CEFDB442F1D19A
:103C20005C20BDE8704002F057BC00BF005000525D
:103C3000004402581C150024014805F01BBF00BFBA
:103C4000D0140024084B1A1D981D03F1080110B46C
:103C50009C1C9A6603F10A02C3E91834C3E91B01EC
:103C60005DF8044B5A677047C014002438B50368E8
:103C700071B9026A00F1280500F5AC74012A0CBF85
:103C8000002140218BBB1D4B5722C0F858310DE05D
:103C9000426A00F1C00500F5E874012A0CBF00215A
:103CA0004021EBB1164B5A22C0F8D03100232046F8
:103CB000C4E901214FF480524FF480616362626174
:103CC0004FF48042C4E903314FF48073C4E9062302
:103CD0004FF40033236202F065FD58B1FFBEFEE7EA
:103CE000084B5822C0F8D031E0E7074B5922C0F802
:103CF0005831DBE7C5E92044A56338BD1000024018
:103D00007000024028000240580002402DE9F043B4
:103D1000821D05468BB0031D05F10A010830CDE96F
:103D2000052305F10C02AB69CDE907010992002BCF
:103D30003DD0EB69B3FA83F84FEA58180123022209
:103D400005AE0AAF4FF006090393CDE9012356F8FB
:103D5000044B2B792278934216D02B68F3B1012BB8
:103D600002D1F2B10A230493204601F045FC034638
:103D70002046009301F038FC694603F0DDFBBE42AB
:103D8000E5D10BB0BDE8F083697963789942E4D15D
:103D9000B8F1000FF3D02B68002BE0D1CDF81090D4
:103DA000E2E76378022B14BF0A230823DBE74FF016
:103DB0000108C3E7534A0368934230B505468BB008
:103DC00055D02032934252D04F4A934204D02032F1
:103DD000934201D00BB030BD4C4C4D48D4F8E0308C
:103DE00043F00103C4F8E030D4F8E03003F00103FD
:103DF0000593059BD4F8E03043F00803C4F8E030A5
:103E0000D4F8E03003F008030693069BD4F8E030C2
:103E100043F04003C4F8E030D4F8E03003F040034E
:103E20000793079BD4F8F03043F40003C4F8F03054
:103E3000D4F8F03003F400030893089BFFF766FF03
:103E4000D4F8D830296843F001032F4A3048C4F829
:103E5000D830891AD4F8D83018BF012103F00103F3
:103E60000993099B0BB0BDE83040FFF7FFBE274C1C
:103E70002848D4F8E03043F00103C4F8E030D4F827
:103E8000E03003F001030093009BD4F8E03043F0EE
:103E90001003C4F8E030D4F8E03003F010030193CD
:103EA000019BD4F8E03043F04003C4F8E030D4F88C
:103EB000E03003F040030293029BD4F8F03043F467
:103EC0008003C4F8F030D4F8F03003F48003039397
:103ED000039BFFF71BFFD4F8D830296843F0010398
:103EE000084A0C48C4F8D830891AD4F8D83018BF1A
:103EF000012103F001030493049B0BB0BDE83040A3
:103F0000FFF7B4BE04580140045C0140004402586D
:103F10009417002438150024014802F0BBBF00BFED
:103F200090160024014802F0B5BF00BF0817002416
:103F3000014802F0AFBF00BFEC180024014802F0B6
:103F4000A9BF00BF641900241A4A0368934210B441
:103F50000BD02032934208D0174A934216D0203219
:103F6000934213D05DF8044B7047144B0022D3F8F2
:103F70005442C3F85822002CF4D0D3F84802D3E9B5
:103F8000931223465DF8044B520818470B4B00224E
:103F9000D3F8B044C3F8B424002CE3D0D3F8AC2455
:103FA000D3F8A814D3F8A404520823465DF8044BB0
:103FB000184700BF04580140045C01403815002434
:103FC000184A0368934210B40BD02032934208D0B1
:103FD000154A934217D02032934214D05DF8044B17
:103FE0007047124BD3E994245208C3F85822002C8E
:103FF000F4D0D3E99201234601EB820100EB820069
:104000005DF8044B1847094BD3F8AC24D3F8B044FF
:104010005208C3F8B424002CE0D0D3F8A814D3F885
:10402000A404E8E704580140045C0140381500246A
:104030002DE9F04F0C684FF41776754F87B004FBED
:1040400006F6012C07EB060AC0F800A000F3A080DA
:104050000D468E464FF00008D44669A3D3E90023ED
:1040600069A1D1E90001CDE9022306ABCAF850826B
:1040700003EB8403CDE9040153F810BC53F8083C6A
:10408000CAE992880193BEE80F00ACE80F00BEE8D1
:104090000F00ACE80F00019B9EE80300CAF828B0AF
:1040A000CAF8C0308CE803002B69042B0CD8DFE879
:1040B00003F0737D879103004FF41773554A03FB98
:1040C00004739A64C3F8E020AA692B6A002A43D0DB
:1040D000002B4FF4177308BF022203FB047318BFB1
:1040E0000322DA6201221A63EA696B6A002A40D16C
:1040F000191E4FF4177318BF012103FB0473C3E9A2
:1041000031126B69022B05D8434A12F80380434AE7
:1041100052F823904FF4177306F12800424649469F
:1041200003FB04740023384463646363E365C4F8E9
:10413000DC30C4F8CC30C4F8F430C4E90F33C4E93F
:104140001533C4E93533C4E93B33022307F034FDAA
:10415000002849D0FFBEFEE7191E4FF4177318BFA1
:10416000012103FB0473C3E90B12EA696B6A002A9D
:10417000BED0002B4FF4177308BF022203FB047359
:1041800018BF0322C3F8C4200122C3F8C820B8E72F
:10419000012007B0BDE8F08F4FF417734FF4FA52C7
:1041A00003FB04739A64C3F8E0208DE74FF41773A0
:1041B0004FF47A5203FB04739A64C3F8E02083E758
:1041C0004FF417734FF4FA4203FB04739A64C3F875
:1041D000E02079E74FF417734BF6803203FB04734A
:1041E0009A64C3F8E0206FE706F1C000022342465C
:1041F0004946384407F0E0FC0028CAD0FFBEFEE77D
:1042000004580140045C014024580140245C0140F2
:1042100038150024007701000C62010810620108C3
:104220000068704770B5046882B015460E46C4F841
:104230005032C4E99212069AC4F85422A269012AA3
:1042400026D0626A012A9AB211D0294604F1C00030
:10425000019207F06DFD236A019A012B10D02946C7
:1042600004F1280007F064FD002002B070BD04F1E5
:10427000C000019207F0EEFD236A019A012BEED1F6
:10428000314604F1280007F0E5FD002002B070BDC2
:10429000226A012A9AB211D0294604F1280001921B
:1042A00007F046FD636A019A012B10D0294604F1FC
:1042B000C00007F03DFD002002B070BD04F12800F1
:1042C000019207F0C7FD636A019A012BEED13146D6
:1042D00004F1C00007F0BEFD002002B070BD00BFB9
:1042E00003681B69042B05D8044A02EB830393ED92
:1042F000000A70479FED020A704700BF1C62010868
:1043000000803B470368D3F858027047714A03683E
:1043100011698B4200B587B04BD0916E8B4200F093
:10432000B680D2F8C0108B4200F0B380D2F81811DA
:104330008B4200F0B080B3F1804F1ED0664A9342AA
:104340000DD0664A934200F0A880654A934200F07F
:10435000B280644A93421ED007B05DF804FB624B02
:10436000D3F8E82042F00202C3F8E820D3F8E8309E
:1043700003F002030293029BEEE75B4BD3F8E820C5
:1043800042F00102C3F8E820D3F8E83003F001035B
:104390000193019BE0E7544BD3F8E82042F0100270
:1043A000C3F8E820D3F8E83003F010030593059B29
:1043B000D2E700205821B3F1804F01FB0022127B8D
:1043C0001ED045498B4235D044498B4248D04449A0
:1043D0008B42BED1444BD3F8E81041F00801C3F83A
:1043E000E810D3F8E83003F008030493049B002A94
:1043F000B2D0322000220F2102F022F8322014E045
:10440000394BD3F8E81041F00101C3F8E810D3F8B4
:10441000E83003F001030193019B002A9CD01C208B
:1044200000220F2102F00CF81C2007B05DF804EB0D
:1044300002F044B82C4BD3F8E81041F00201C3F865
:10444000E810D3F8E83003F002030293029B002A3D
:1044500082D01D2000220F2101F0F2FF1D20E4E791
:10446000214BD3F8E81041F00401C3F8E810D3F869
:10447000E83003F004030393039B002A3FF46CAF7E
:104480001E2000220F2101F0DBFF1E20CDE70120BE
:1044900090E702208EE703208CE7134BD3F8E82047
:1044A00042F00402C3F8E820D3F8E83003F0040334
:1044B0000393039B50E70C4BD3F8E82042F008022B
:1044C000C3F8E820D3F8E83003F008030493049B12
:1044D00042E700BFF019002400040040000800403B
:1044E000000C004000100040004402580368B3F183
:1044F000804F16D01E4A93421DD01E4A93422CD0A4
:104500001D4A934203D01D4A93421ED070471C4A55
:104510003220D2F8E83023F00803C2F8E83001F086
:10452000DBBF174A1C20D2F8E83023F00103C2F8A1
:10453000E83001F0D1BF124A1D20D2F8E83023F054
:104540000203C2F8E83001F0C7BF0D4AD2F8E830E4
:1045500023F01003C2F8E8307047094A1E20D2F851
:10456000E83023F00403C2F8E83001F0B5BF00BF23
:104570000004004000080040000C00400010004013
:10458000004402580F4B026819698A420BD0996E99
:104590008A4211D0D3F8C0108A420FD0D3F8181134
:1045A0008A420DD070470021582202FB01331A6D58
:1045B000002AF7D0586D10470121F5E70221F3E7F3
:1045C0000321F1E7F0190024014807F087BF00BF7D
:1045D000001A0024014807F081BF00BF581A0024C8
:1045E000014807F07BBF00BFB01A0024014807F064
:1045F00075BF00BF081B0024F0B54FF0580C0F68C2
:104600002E4D8DB00CFB07FC032F05EB0C0606604E
:1046100047DC0B460868344649689A6807C41B7B28
:10462000237004AC7268264B002A4FF000027261BE
:1046300018BF1022B2610FCB84E80F000CAB03EB64
:10464000870353F8203CB3F1804F336124D01D4AD7
:10465000934221D030890CF110045823002180228C
:1046600003FB07532C44C3E907019A62204607F075
:1046700067FD034600B1FEE74FF4805208A92046CB
:10468000099301930892CDE90A33CDE9023307F08B
:104690005FFE034640B1FEE7582303FB07539868CB
:1046A000D9E701200DB0F0BD01A920460193039385
:1046B00007F0CCFF0028F5D0FEE700BFF01900247A
:1046C00030610108000C004010B504681034204629
:1046D00007F00EFE00B1FEE7204607F0D1FD00B165
:1046E000FEE710BD006808B5037B10302BB107F062
:1046F00019FE003818BF012008BD07F0DFFD0038A3
:1047000018BF012008BD00BF006808B5103007F0D1
:10471000EFFD003818BF012008BD00BF10B50468C8
:1047200000F044FA400023699B6A0133B0FBF3F0C8
:1047300010BD00BF03681B69586A70470C4B00220C
:104740004FF0FF311A739960196683F86420C3F83B
:10475000B81083F8BC20C3F8101183F81421C3E902
:104760000022C3E91622C3E92C22C3E94222704782
:10477000F019002408B501F047F8BDE8084001F041
:1047800027BF00BF064808B503680BB103F0E6F881
:10479000044803681BB1BDE8084004F08DB808BDAB
:1047A00070450024683F0024064808B503680BB133
:1047B00003F0D4F8044803681BB1BDE8084004F0D6
:1047C0007BB808BD70450024683F0024064808B542
:1047D00003680BB103F0C2F8044803681BB1BDE8DD
:1047E000084004F069B808BD70450024683F002403
:1047F000364BDA6A520062D59A6A9A6A9A6A9B6A5A
:10480000180600D500BE314B9B6A990600D500BE44
:104810002E4B9B6ADA0600D500BE2C4B9B6A1B0709
:1048200000D500BE294B9B6A980700D500BE274BD8
:104830009B6AD90700D500BE244B9B6A1A0400D599
:1048400000BE224B9B6A9B0400D500BE1F4B9B6A97
:10485000D80400D500BE1D4B9B6A190500D500BECB
:104860001A4B9B6A5A0500D500BE184B9B6A9B05E4
:1048700000D500BE154B9B6AD80500D500BE134B72
:104880009B6A990100D500BE104B9B6ADA0100D5E6
:1048900000BE0E4B9B6A1B0300D500BE0B4B9B6AF0
:1048A000580300D500BE094B9B6A990300D500BE92
:1048B000064B9B6ADA0306D400BE00BEFEE7DB6A45
:1048C0009B07FAD5F8E700BEF6E700BF00ED00E071
:1048D00000F0A6BF00F0AABF2DE9F041CEB004461B
:1048E0004C2200210AA80EF053FD2022002102A82C
:1048F0000EF04EFDBC2200211EA80EF049FD022044
:1049000004F0D6FC2368012B4FF0000354D0534A27
:1049100002250193C820D16A514B21F00101D162D7
:10492000D26A02F0010201929A6942F440429A610D
:104930009B6903F440430193019B494A93699B049B
:10494000FCD548490224002201268B6A04274FF037
:10495000080823F0030323438B62052316900AA85B
:1049600018934FF480331096179419941597CDF837
:104970006880CDE91B222122CDE91344CDE90A2329
:1049800005F080F900B1FEE73F220323294602A883
:10499000CDE9022300220823CDE90423402240234D
:1049A000CDE9062340234FF48062CDE9082305F0CA
:1049B00097FC0346B8B1FEE7294A04250093F0208E
:1049C0009169264B41F440419161926902F4404261
:1049D0000092DA6A42F00102DA62DB6A03F0010354
:1049E0000093009BA9E720224FF4805125934FF4B8
:1049F00040152B9280222D931EA83093269135913D
:104A00004FF48071249234920C223394439140F2FB
:104A1000271120921022CDF884802A971F96CDE985
:104A20002E34CDE93B334FF48033CDE92246319328
:104A3000002446930623CDE93E4527934FF4806337
:104A4000094C2C931E94CDE9281205F0A5FE00B167
:104A5000FEE704F053FC4EB0BDE8F08100040058BE
:104A600000480258004402580F130F032DE9F0418B
:104A70000D46044684B0D1E9000184E8030000F04B
:104A800093FEAE79002E37D06F460BF07BFAFEF71F
:104A90009FFC0AF007F90AF0FFFF2B79002B54D195
:104AA0006B799BB1BFF34F8FBFF36F8F3C4B0022ED
:104AB000C3F85022BFF34F8FBFF36F8F5A6942F490
:104AC00000325A61BFF34F8FBFF36F8F4FF0FF3249
:104AD0000023002400253946324802928DF80C301C
:104AE000CDE90045FFF788FD2E48FFF7FBFD09F0F3
:104AF00009FD04B0BDE8F08120466F46FFF7ECFEEB
:104B0000012401F013FD4FF040534FF480783846F4
:104B10000193254BADF80040CDE9023801F024FDAA
:104B200019224FF0404338468DF80F40ADF80D8004
:104B30008DF801408DF80A608DF80820019301F08E
:104B400013FD042001F000FD9FE7154C0023C4F87D
:104B50008430BFF34F8FD4F8803043F6E07EC3F348
:104B6000C906C3F34E334FEA431C0CEA0E0033462A
:104B700040EA8372013BC4F860225A1CF8D1ACF1C0
:104B8000200C1CF1200FF0D1BFF34F8F636943F469
:104B900080336361BFF34F8FBFF36F8F80E700BF38
:104BA00000ED00E0501B00240E00010305F0C8BC1E
:104BB0001C4B9B6803F17842B2F5003F25D3B3F557
:104BC000803F20D303F16042B2F5003F1FD303F1D1
:104BD0005C42B2F5002F1CD303F17042B2F5902F66
:104BE00019D303F14842B2F5803F16D303F1804256
:104BF000B2F1806F13D303F1E043B3F5000F2CBF84
:104C000008200720704701207047002070470220CD
:104C10007047032070470420704705207047062026
:104C2000704700BF00ED00E003480023034A044939
:104C300003600DF07DBE00BF501B00240000002467
:104C40005D0A000810B4204C0022204B83B0D4F839
:104C500088101F4841F47001C4F8881019681D4C71
:104C600041F0010119601A61196808401A49186079
:104C70009A61DA611A629A62DA621A635A639A6313
:104C8000DA631A645A64186820F4802018601A667F
:104C9000D3F8DC2042F06042C3F8DC20D3F8DC30EB
:104CA0000193019B23681940B1F1005F03D20B4BC4
:104CB0000122C3F80821044B4FF000629A6003B050
:104CC0005DF8044B704700BF00ED00E0004402585F
:104CD0007FEDF6EA0010005C0000FFFF008000514D
:104CE000704700BF0020704770B50446074E0D4660
:104CF0003046214608F01CFF304608F03BFF044BCD
:104D0000204629461B689847002070BDE009002412
:104D1000543B002470B50446074E0D4630462146EC
:104D200008F006FF304608F025FF044B20462946D0
:104D30001B689847002070BD7C0C0024583B002461
:104D400000220949094808B508F0E8FE0849074863
:104D500008F0EEFE074B1A680AB1002008BD064AAB
:104D600000201A6008BD00BF542B0024E009002475
:104D7000541B0024543B0024E14C00080022094944
:104D8000094808B508F0CAFE0849074808F0D0FEEF
:104D9000074B1A680AB1002008BD064A00201A60B5
:104DA00008BD00BF543300247C0C0024542300248D
:104DB000583B0024E14C000820280AD0212806D1C5
:104DC000094B18689A889B7908608A808B7100204B
:104DD0007047054B0868B1F804C08A791860002054
:104DE000A3F804C09A7170478000002420280AD0DC
:104DF000212806D1094B18689A889B7908608A8017
:104E00008B7100207047054B0868B1F804C08A799F
:104E100018600020A3F804C09A717047880000242D
:104E20000020704710B5094CD4F89032D3F81432F2
:104E30000BB1012010BD0A460146204608F06EFE67
:104E40002046BDE8104008F07BBE00BFE00900240A
:104E50004B4A036830B593428BB04FF00004CDE964
:104E60000444CDE90644089404D0464A934249D00C
:104E70000BB030BD444D4FF4C0524448D5F8E0303B
:104E800043F00103C5F8E030D5F8E03003F001034A
:104E900000930223009904A9CDE904230A2308936F
:104EA00002F04AFB4FF40072002304A9374806942D
:104EB000CDE9042302F040FBD5F8D8302246214644
:104EC00043F000636220C5F8D830D5F8D83003F03D
:104ED00000630193019B01F0B3FA622001F0EEFA46
:104EE00022462146632001F0ABFA632001F0E6FA86
:104EF00022462146652001F0A3FA652001F0DEFA82
:104F00000BB030BD204D4FF4404204A9D5F8E0303D
:104F100043F00203C5F8E030D5F8E03003F00203B7
:104F20000293022302981A48CDE904230C23089324
:104F300002F002FBD5F8D830224621464A2043F041
:104F40000073C5F8D830D5F8D83003F00073039358
:104F5000039B01F075FA4A2001F0B0FA224621467F
:104F60004B2001F06DFA4B2001F0A8FA22462146B1
:104F70004D2001F065FA4D2001F0A0FA0BB030BDD4
:104F8000000008400000044000440258000002589D
:104F90000004025800F57171D0F8040408F056BE00
:104FA000C1EBC10300EB8303D0F80404D3F808225B
:104FB00008F07ABEC1EBC10300EB8303D0F8040410
:104FC0009A6C08F0AFBE00BFD0F8040408F04EBFE2
:104FD000C16810B5044619B1022900D0FEE70121CD
:104FE000D4F8040408F02CFFD4F80404BDE8104001
:104FF00008F0FEBE10B50446D0F8040408F024FF03
:105000002268D2F8003E43F00103C2F8003E236A52
:1050100023B1034A136943F00603136110BD00BFB7
:1050200000ED00E0D0F8040408F018BFD0F8040444
:1050300008F02CBFD0F8040408F026BFD0F8040410
:1050400008F026BFD0F8040408F024BF70B5067835
:1050500004461EB1012E30D0002070BD304D092312
:10506000304AC5F80404C0F8985228462E612E63D1
:10507000C5E9002302230222EB600023C5E90623D1
:1050800000220023C5E9082301220123C5E90A23E0
:1050900003F05AFB00B1FEE78021284604F0E8F84F
:1050A00031464022284604F0B9F8802201212846E2
:1050B00004F0B4F82678012ECED11B4D09221B4BEB
:1050C00000216A6002222B600223C5F804442846AE
:1050D000EB600023C4F898522961C5E90623002239
:1050E0000023C5E90823C5E90C2301220023C5E9F3
:1050F0000A2303F029FB044600B1FEE74FF40071D8
:10510000284604F0B5F821468022284604F086F8A7
:105110004FF4BA723146284604F080F89CE700BF8D
:10512000603B002400000840683F00240000044069
:10513000D0F8980208B503F09DFB032802D8024B73
:10514000185C08BD022008BD406201089446D0F8F2
:1051500098021A4608B5634603F012FF032802D8E6
:10516000024B185C08BD022008BD00BF4062010868
:10517000D0F8980208B503F041FF032802D8024B8B
:10518000185C08BD022008BD40620108D0F89802F2
:1051900008B503F0C3FF032802D8024B185C08BD12
:1051A000022008BD40620108D0F8980208B503F05B
:1051B000F9FF032802D8024B185C08BD022008BD85
:1051C000406201080A06D0F8983206D4C1EBC1014A
:1051D00003EB810191F8FE01704701F07F01C1EB03
:1051E000C10103EB810191F83E007047D0F89802AD
:1051F00008B503F0AFFE032802D8024B185C08BDC7
:10520000022008BD40620108D0F8980208B503F0FA
:105210005DFF032802D8024B185C08BD022008BDC0
:1052200040620108D0F8980208B503F01DFF03287A
:1052300002D8024B185C08BD022008BD406201087C
:10524000D0F8980203F038BF122301480B80704752
:10525000DC000024122301480B807047C8000024A2
:10526000042301480B807047F000002410B5044C63
:105270000A460448214609F08DF8204610BD00BFBB
:10528000704300244462010810B5044C0A460448E7
:10529000214609F07FF8204610BD00BF704300246E
:1052A0005462010810B5044C0A460448214609F02E
:1052B00071F8204610BD00BF7043002468620108E9
:1052C00010B5044C0A460448214609F063F820460C
:1052D00010BD00BF704300247462010810B5044C77
:1052E0000A460448214609F055F8204610BD00BF83
:1052F0007043002484620108042301480B80704736
:10530000F000002410B5044C0A460448214609F078
:1053100041F8204610BD00BF7043002444620108DC
:10532000464A4FF01A0CD2F80008D2F80838A1F813
:1053300000C0C31801D142487047180FB3F1204F85
:10534000D2F804184FF0000C3D4A2CBF37303030F3
:1053500082F803C04FF0000C9070C3F3036082F832
:1053600005C04FF0000C092882F807C04FF0000C70
:105370008CBF3730303082F809C04FF0000C10710C
:10538000C3F3035082F80BC04FF0000C092882F8D9
:105390000DC08CBF373030309071C3F30340092803
:1053A0008CBF373030301072C3F3033009288CBF04
:1053B000373030309072C3F3032009288CBF373068
:1053C00030301073C3F3031003F00F0309288CBFB0
:1053D00037303030092B90734FF0000094BF3033DA
:1053E0003733B1F1204FD07313744FEA11734FF07C
:1053F00000002CBF37333033507400209374C1F356
:105400000363D0740020092B50754FF000008CBF4F
:1054100037333033D0751375C1F303530848092B64
:105420008CBF373330339375C1F30343092B94BFDB
:1054300030333733137600235376704700E0F11F83
:10544000F4000024464A4FF01A0CD2F80008D2F8B3
:105450000838A1F800C0C31801D142487047180F9E
:10546000B3F1204FD2F804184FF0000C3D4A2CBF86
:105470003730303082F803C04FF0000C9070C3F327
:10548000036082F805C04FF0000C092882F807C0BD
:105490004FF0000C8CBF3730303082F809C04FF02D
:1054A000000C1071C3F3035082F80BC04FF0000CD6
:1054B000092882F80DC08CBF373030309071C3F3AB
:1054C000034009288CBF373030301072C3F30330EB
:1054D00009288CBF373030309072C3F3032009287D
:1054E0008CBF373030301073C3F3031003F00F0359
:1054F00009288CBF37303030092B90734FF00000F3
:1055000094BF30333733B1F1204FD07313744FEA67
:1055100011734FF000002CBF37333033507400202C
:105520009374C1F30363D0740020092B50754FF0BE
:1055300000008CBF37333033D0751375C1F303537C
:105540000848092B8CBF373330339375C1F30343BD
:10555000092B94BF303337331376002353767047CB
:1055600000E0F11FF400002410B5044C0A46044882
:10557000214608F00FFF204610BD00BF70430024F5
:105580007462010810B5044C0A460448214608F02C
:1055900001FF204610BD00BF70430024686201086F
:1055A000D0F8C00208F068BFD0F8C00208F07CBF95
:1055B000D0F8C00208F084BF704700BFD0F8C00226
:1055C00008F06ABFD0F8C00208F06ABFD0F8D00374
:1055D00008B502F083FD032802D8024B185C08BD11
:1055E000022008BD98620108024B027853F822009D
:1055F000704700BFBC620108024B427833F81200CA
:10560000704700BF9C6201088CB00A2814D8DFE8FC
:1056100000F01523313F4D5B6977859306004D4BB4
:10562000D3F8E02042F48062C3F8E020D3F8E03001
:1056300003F480630B930B9B0CB07047454BD3F87E
:10564000E02042F00102C3F8E020D3F8E03003F09C
:1056500001030193019BEFE73E4BD3F8E02042F0BA
:105660000202C3F8E020D3F8E03003F00203029313
:10567000029BE1E7374BD3F8E02042F00402C3F885
:10568000E020D3F8E03003F004030393039BD3E757
:10569000304BD3F8E02042F00802C3F8E020D3F802
:1056A000E03003F008030493049BC5E7294BD3F8CB
:1056B000E02042F01002C3F8E020D3F8E03003F01D
:1056C00010030593059BB7E7224BD3F8E02042F087
:1056D0002002C3F8E020D3F8E03003F02003069363
:1056E000069BA9E71B4BD3F8E02042F04002C3F829
:1056F000E020D3F8E03003F040030793079B9BE7DB
:10570000144BD3F8E02042F08002C3F8E020D3F835
:10571000E03003F080030893089B8DE70D4BD3F82E
:10572000E02042F48072C3F8E020D3F8E03003F4C4
:1057300080730993099B7FE7064BD3F8E02042F47E
:105740000072C3F8E020D3F8E03003F400730A934A
:105750000A9B71E700440258704700BF0F4B1B784B
:105760000BB90120704710B504464FF47A700C4A0B
:10577000B0FBF3F31068B0FBF3F000F0C1FE0F2CA8
:1057800000D808B1012010BD002221464FF0FF30A3
:1057900000F056FE034B00201C6010BD0E010024DB
:1057A000580000241001002438B50320124D00F0E9
:1057B00035FE124C04F0F4FC114A12499369C3F30C
:1057C0000323CB5C03F01F0320FA03F30E202B60AE
:1057D000926902F00F028A5C02F01F02D34023603C
:1057E000FFF7BCFF10B10124204638BD0446FFF787
:1057F000B3FF204638BD00BF580000245C000024E1
:105800000044025830620108034A044B11681B78B7
:105810000B441360704700BF344800240E0100247D
:10582000014B1868704700BF3448002438B504465F
:10583000FFF7F6FF0546631C02D0044B1B781C449F
:10584000FFF7EEFF431BA342FAD338BD0E0100243D
:10585000014B1868000C70470010005C704700BFD7
:10586000806B08B5FFF7FAFF08BD00BF836B5A6D68
:1058700012F0500F5A6D10B51DD1196842F4007224
:105880005A650A6812F0080FCA681BD012F4406FFC
:105890000DD1CA6894040AD45A6D22F480725A65F4
:1058A0005A6DD10403D45A6D42F001025A6518466C
:1058B000FDF7E6FA10BDD2060AD4DB6CBDE8104055
:1058C000DB6C18479007E7D01846FDF7D9FAF1E7E7
:1058D0001846FDF779FB10BD806B08B5436D43F0AA
:1058E00040034365836D43F004038365FDF76CFB60
:1058F00008BD00BFF0B5002283B0019290F850209F
:10590000012A00F01C81034601201A6883F8500028
:105910009468640700F18A800C68C4F31305002DB5
:1059200040F08F80C4F38464A0404D684FF01F0E98
:10593000D6694FEA951C30430CF00C0CD06105F091
:105940001F0002F1300584400EFA00FE5CF80500ED
:1059500020EA0E0004434CF80540906840076ED4DE
:10596000956815F0080547D10C68072002F1140668
:10597000B94F4FEAD45CC4F304540CF0040C00FAA1
:1059800004FE886800FA04F45CF8060020EA0E00C1
:1059900020434CF80600386800F07040B0F1805F9A
:1059A00000F0C580D068D668C70600F1E880C6F36D
:1059B00082064869760000FA06F60F69042F00F0A7
:1059C000C18002F16004086854F827C000F0F84074
:1059D0000CF0004C40EA0C00304344F82700487EAD
:1059E0000E69012854F8260008BF4FF0004520F04A
:1059F0000040054344F826509068C40714D4CE688C
:105A0000086806F01807954CD2F8C050FC40C0F367
:105A10001307044025EA07052C43C2F8C040904C08
:105A2000A64246D0002816DB002003E05A6D42F063
:105A300020025A65002283F8502003B0F0BD906820
:105A4000DAE794FAA4F5B5FA85F5C4F3846405F0B1
:105A50001F05A84069E783498A4200F0B68001F536
:105A600080718A4200F0B1807F4D804CA968A468A3
:105A700001F0E076E44304F00104002C00F0B4806F
:105A80007B4CA04200F0FC807A4CA04200F01A81CE
:105A9000794CA042C8D14902C6D474498A42C3D1C4
:105AA000AA68002022F0E072324342F48002AA6029
:105AB000C0E7002F6AD090FAA0F4B4FA84F401345D
:105AC00004F01F04092C00F2A48090FAA0F4B4FAA8
:105AD00084F490FAA0F5B5FA85F501340126013574
